:020000040800F2
:1000000018040020390100080B110008B10F000886
:1000100009110008C90100088D1400080000000043
:10002000000000000000000000000000F9110008BE
:10003000CB010008000000007511000855130008EE
:100040005301000853010008530100085301000840
:100050005301000853010008530100085301000830
:1000600027020008530100082D0200085301000870
:100070005301000853010008530100085301000810
:100080005301000853010008530100085301000800
:10009000530100085301000853010008330200080F
:1000A00053010008530100085301000853010008E0
:1000B00053010008530100085301000853010008D0
:1000C00053010008530100085301000853010008C0
:1000D00053010008530100085301000853010008B0
:1000E00011020008530100085301000853010008E1
:1000F00053010008000000005301000853010008EC
:10010000530100085301000853010008530100087F
:1001100053010008530100085301000800000000CB
:1001200053010008DFF80CD000F03CF8004800470D
:100130001D1500081804002006488047064800479F
:10014000FEE7FEE7FEE7FEE7FEE7FEE7FEE7FEE787
:10015000FEE7FEE7B9130008250100080649074A33
:100160000868504343F23902104408604008704761
:100170000149086070470000140000206D4EC64120
:10018000D2B201E000F8012B491EFBD270470022D9
:10019000F6E710B513460A4604461946FFF7F0FF86
:1001A000204610BD064C074D06E0E06840F0010314
:1001B00094E8070098471034AC42F6D3FFF7B6FF37
:1001C000C4150008E4150008FEE770470F484178A1
:1001D000027809B101207047012AFAD103793BB1B5
:1001E000012BF6D18378322B07D94FF002007047EC
:1001F00083780F2BEDD90520704703D20F2B01D93F
:10020000032070470F2BE4D2042070470C0000201D
:1002100010B54FF4806000F063F8BDE810404FF473
:10022000005000F05DB8042000F05AB8102000F033
:1002300057B84FF4807000F053B800001048417870
:1002400009B101207047C2780AB1062070470279CF
:100250003AB1012AF4D18278322A07D94FF002004C
:10026000704782780F2AEBD90520704703D20F2AF6
:1002700001D9032070470F2AE2D204207047000002
:100280000C00002070B5144C144DB0F5005F08D080
:10029000B0F5807F0AD004280DD0102810D000BF00
:1002A00070BD012001F002F90D200DE0032001F0E6
:1002B000FDF8082008E0042001F0F8F8022003E02F
:1002C000052001F0F3F8042020702846BDE87040B6
:1002D000202100F0E9B800000000002000000240EA
:1002E000044910B50A68024202D00860FFF7CAFF4D
:1002F00010BD0000140401402DE9F84FDFF880B173
:1003000000234FF0010C4FF0030A4FF00F090BF1DF
:10031000040EAEE00CFA03F614EA060270D04C6844
:10032000022C01D0122C11D1DC0800EB84073C6AAE
:100330005D07ED0E09FA05F824EA0804D1F81080EB
:1003400008FA05F848EA0408C7F8208007685D0045
:1003500091F804800AFA05F408F00308A74308FAA4
:1003600005F848EA0708C0F800804F68012F05D05B
:10037000022F03D0112F01D0122F11D18768D1F88D
:100380000C80A74308FA05F848EA0708C0F8088077
:100390004768B7430E79C6F300169E403E43466059
:1003A000C668A6438C68AC403443C4604C68E40023
:1003B0005ED5344C256845F001052560246823F09E
:1003C000030504F0010400942F4C2E19B4689D0716
:1003D0002F0F09FA07F5AC432C4DA84201D1002597
:1003E0001FE02B4DA84201D101251AE0294DA8425A
:1003F00001D1022515E0284DA84202D1032510E0C5
:1004000036E0264DA84201D104250AE0244DA84239
:1004100001D1052505E0234DA84201D1062500E0C4
:100420000725BD402543B560DBF800405D464E68BA
:100430009443F60300D514432C60DEF80040754663
:100440004E689443B60300D514432C600C4D083518
:100450002C684E689443F60200D514432C60084D76
:100460000C352C684E689443B60200D514432C60BA
:100470005B1C0A681446DA407FF44CAFBDE8F88F85
:10048000000401402038024000000140000002400A
:100490000004024000080240000C0240001002402C
:1004A000001402400018024042694A40426170470D
:1004B0000AB1816170470904FBE700000148006848
:1004C000704700000400002002480168491C0160D8
:1004D000704700000400002010B5032000F06AF807
:1004E000002000F005F800F017F8002010BD000013
:1004F00010B5044607484FF47A710068B0FBF1F07C
:1005000000F042FD00222146501E00F033F800208A
:1005100010BD0000080000200F4882B0016841F0C3
:1005200000410160016801F000410091011F0A686B
:1005300042F001020A60096801F0010100910168BE
:1005400041F080510160006800F080500090072069
:1005500002B000F02FB800002438024000F01F0263
:10056000012191404009800000F1E020C0F8001115
:1005700070470000F0B40E4B1B680C46C3F3022317
:10058000C3F10705042D00D90425191D072901D23F
:10059000002300E0DB1E012606FA05F1491E21407A
:1005A00099409E40761E16403143F0BC00F0AEBD2F
:1005B0000CED00E0064900F0070208684FF6FF0363
:1005C000184040EA0220034A1043086070470000C8
:1005D0000CED00E00000FA052DE9F047DFF8BC81E2
:1005E00005460E46D8F8000000F00100B04214D2D3
:1005F000012E05D1D8F8001041F00401C8F8001010
:10060000D8F8001021F001013143C8F80010D8F8E3
:10061000000000F00100B04271D12878604C8007E2
:1006200005D52068A96820F0F000084320602878EC
:10063000C00771D05A4A5A4B69680120083A2C33D6
:10064000022910D003292ED001292FD05FEA40279C
:1006500097FAA7FCBCFA8CFC4CF0200C5FEA5C1CFF
:1006600004D0126803E04FF40037F1E71A6897FAF4
:10067000A7F3B3FA83F303F01F039840024262D05A
:10068000206820F0030008432060FFF717FF696827
:10069000074641F28830022910D003291CD00129D5
:1006A000814626D034E04FF00077D1E70227CFE72C
:1006B000FFF704FFC11B494501D926E081462068A8
:1006C000C0F381000228F3D126E000BFFFF7F6FE59
:1006D000C11B494501D918E081462068C0F381005B
:1006E0000328F3D118E000BFFFF7E8FEC11B49451E
:1006F0000BD82068C0F381000128F5D10CE022E07E
:10070000FFF7DCFEC11B494502D90320BDE8F08795
:10071000206810F00C0FF3D1D8F80010404601F01B
:100720000101B14211D9012E03D1016841F0040148
:100730000160016821F0010131430160006800F0AF
:100740000100B04201D00120E0E72878400705D53C
:100750002068E96820F4E0600843206028780007FA
:1007600006D52068296920F4605040EAC100206065
:1007700000F01CF82168F02292FAA2F201F0F001D8
:10078000B2FA82F2D140074A515CC840064908607B
:100790000020FFF7ADFE0020B8E70000003C02405B
:1007A00008380240B1150008080000201E4A1168F0
:1007B00001F00C00042813D0082813D00C2813D003
:1007C000101F006800F460414FF4604090FAA0F000
:1007D000B0FA80F0C1404FF40040491C8840704797
:1007E00012487047124870474FF4701393FAA3F3FE
:1007F00001F47010B3FA83F3D8400E4B01F44001BA
:100800001268185C4FF4400393FAA3F3B3FA83F32E
:10081000D940491CD20301D5054A00E0034A5043A0
:10082000B0FBF1F070470000083802400024F400EB
:1008300000127A00A81500082DE9F84F0746007845
:10084000FB4EFC4DC0074FF0010428D0F84808309B
:1008500001684FF40038C1F38101022907D0016813
:10086000C1F3810103291BD10068C00318D598FA90
:10087000A8F0B0FA80F040F02000400901D03068C4
:1008800000E0286898FAA8F1B1FA81F101F01F019F
:1008900004FA01F108425CD0786800287BD058E067
:1008A000786801280AD008B1052811D0306820F4F2
:1008B00080303060306820F4802002E0306840F4FE
:1008C00080303060786828B3FFF7F8FD81460BE090
:1008D000306840F480203060F0E700BFFFF7EEFDA5
:1008E000A0EB0900642872D898FAA8F0B0FA80F05A
:1008F00040F02000400901D0306800E0286898FAF4
:10090000A8F1B1FA81F101F01F0104FA01F10842E6
:10091000E4D01EE0FFF7D2FD814605E0FFF7CEFDF3
:10092000A0EB09006428DED898FAA8F0B0FA80F0AD
:1009300040F02000400901D0306800E0286898FAB3
:10094000A8F1B1FA81F101F01F0104FA01F10842A6
:10095000E4D13878DFF8E08280074FF0000B4FF0E9
:1009600002095FD5B24808300168C1F3810101294D
:1009700007D00168C1F3810103291CD10068C003BD
:1009800019D499FAA9F0B0FA80F040F0200040099B
:1009900002D0306801E086E0286899FAA9F1B1FA3E
:1009A00081F101F01F0104FA01F108422BD0F8682F
:1009B000012878D127E0F868A8B394FAA4F0B0FA37
:1009C00080F048F82040FFF779FD824606E066E1B6
:1009D000FFF774FDA0EB0A00022884D899FAA9F168
:1009E000B1FA81F141F02001490901D0316800E0FC
:1009F000296899FAA9F0B0FA80F000F01F0004FA13
:100A000000F00142E4D08A48001D01684FF4F85319
:100A100093FAA3F33A69B3FA83F321F4F8519A40B5
:100A20001143016025E0FFE794FAA4F1B1FA81F1E6
:100A300048F821B0FFF742FD824605E0FFF73EFD92
:100A4000A0EB0A000228C8D899FAA9F0B0FA80F001
:100A500040F02000400901D0306800E0286899FA91
:100A6000A9F1B1FA81F101F01F0104FA01F1084284
:100A7000E4D138784FF4007AC0067CD56C48083051
:100A8000006810F00C0F0FD0B9694FF48070002986
:100A900072D090FAA0F0B0FA80F048F82040FFF74A
:100AA0000DFD00907EE087E09AFAAAF0B0FA80F09F
:100AB00040F02000400901D0306800E028689AFA30
:100AC000AAF1B1FA81F101F01F0104FA01F1084223
:100AD00002D0B86900286FD05548396A001D0068F7
:100AE00000F4604081421AD9084600F045FB002816
:100AF00062D14F48001D01683A6A21F460411143F8
:100B0000016001684FF07F4393FAA3F3FA69B3FAE7
:100B100083F321F07F419A401143016018E044487B
:100B2000001D026822F460420A43026001684FF02F
:100B30007F4393FAA3F3FA69B3FA83F321F07F4179
:100B40009A4011430160386A00F016FB0028CFD1AB
:100B50004FF4604191FAA1F1386AB1FA81F1C840CD
:100B60004FF40041401C8140314808300068F022B9
:100B700000F0F00001E070E040E092FAA2F2B2FA78
:100B800082F2D0402D4A105CC1402D480160002007
:100B9000FFF7AEFC61E000BFFFF790FC0099401A40
:100BA00002287CD89AFAAAF0B0FA80F040F020002F
:100BB000400902D0306801E0BCE128689AFAAAF145
:100BC000B1FA81F101F01F0104FA01F10842E3D00A
:100BD0001748001D01683A6A21F460411143016021
:100BE00001684FF07F4393FAA3F3FA69B3FA83F3F2
:100BF00021F07F419A40114301602EE090FAA0F06D
:100C0000B0FA80F048F820B0FFF758FC009005E0FB
:100C1000FFF754FC0099401A0228C2D89AFAAAF0A9
:100C2000B0FA80F040F0200040090BD030680AE0B4
:100C3000003802403438024000004742B115000835
:100C40000800002028689AFAAAF1B1FA81F101F0AF
:100C50001F0104FA01F10842DAD13878000753D5B0
:100C6000786948B394FAA4F0B0FA80F008EB8000F9
:100C7000C0F88046FFF722FC009005E0FFF71EFC5D
:100C80000099401A02288CD899FAA9F0B0FA80F09D
:100C900040F04000B4EB501F02D1306801E08EE01C
:100CA000286899FAA9F1B1FA81F101F01F0104FA5B
:100CB00001F21042E2D027E094FAA4F1B1FA81F1F6
:100CC00008EB8101C1F880B6FFF7F8FB009005E062
:100CD000FFF7F4FB0099401A022870D899FAA9F09E
:100CE000B0FA80F040F04000B4EB501F01D1306802
:100CF00000E0286899FAA9F1B1FA81F101F01F0129
:100D000004FA01F21042E3D1387840077BD59B48C2
:100D10004FF000090068C0000AD49848016841F00B
:100D20008051016000684FF0010900F08050009090
:100D300093480168C90511D4016841F480710160CC
:100D4000FFF7BCFB009005E0FFF7B8FB0099401AE5
:100D5000642834D88A480068C005F5D5B8680128E9
:100D60000AD008B1052811D0286820F480702860C6
:100D7000286820F4806002E0286840F480702860D1
:100D8000B86848B3FFF79AFB00900DE0286840F47C
:100D900080602860F0E700BFFFF790FB0099411AE0
:100DA00041F2883081420AD89AFAAAF0B0FA80F06B
:100DB00040F04000B4EB501F02D1306801E095E0F4
:100DC00028689AFAAAF1B1FA81F101F01F0104FA38
:100DD00001F21042E0D022E0FFF770FB009007E044
:100DE000FFF76CFB0099411A41F2883081427DD8AF
:100DF0009AFAAAF0B0FA80F040F04000B4EB501F2D
:100E000002D1306801E012E028689AFAAAF1B1FA3A
:100E100081F101F01F0104FA01F21042E0D1B9F1B1
:100E2000000F04D05548016821F080510160786AB4
:100E3000E8B3DFF84891A9F11C09D9F80010C1F313
:100E40008101032976D002284FF080714FF0007A9B
:100E500058460BD091FAA1F1B1FA81F148F821007E
:100E6000FFF72CFBB046074656466DE04FF0807109
:100E700091FAA1F1B1FA81F18A0042495050FFF78D
:100E80001DFBB3468046564606E000BFFFF716FB43
:100E9000A0EB0800022854D896FAA6F0B0FA80F029
:100EA00040F02000400903D0DBF8000001E061E0E1
:100EB000286896FAA6F1B1FA81F101F01F0104FA4F
:100EC00001F10842E2D1D7E90A103A6BD9F80030B3
:100ED000014323F47D031A431143C9F800104FF076
:100EE000807090FAA0F0B0FA80F000E029E0810074
:100EF00024480C50FFF7E2FA074604E0FFF7DEFA59
:100F0000C01B02281DD896FAA6F0B0FA80F040F077
:100F10002000400902D0DBF8000000E0286896FAC3
:100F2000A6F1B1FA81F101F01F0104FA01F10842C2
:100F3000E4D01FE020E000BFFFF7C0FAC01B02288A
:100F400002D90320BDE8F88F96FAA6F0B0FA80F037
:100F500040F02000400902D0D8F8000000E02868E6
:100F600096FAA6F1B1FA81F101F01F0104FA01F13C
:100F70000842E1D10020E5E70120E3E72438024000
:100F8000007000400000474210B5401EB0F1807F65
:100F900001D3012010BD4FF0E02460610F216017E4
:100FA00000F0B4F80020A06107202061002010BDEF
:100FB000FEE702210170002242708170C170017150
:100FC00041718171C17170471048417809B10120A8
:100FD0007047C2780AB10620704702793AB1012AF7
:100FE000F4D18278322A07D94FF002007047827814
:100FF0000F2AEBD90520704703D20F2A01D903200D
:1010000070470F2AE2D20420704700000C00002035
:1010100070B586B014216846FFF7B9F83448016806
:1010200041F004010160016801F0040105910168CB
:1010300041F001010160016801F0010105910168C1
:1010400041F00201016000682A4E00F002000590A4
:10105000002220213046FFF72BFA4FF40050009079
:1010600025480024CDE9010469462448FFF744F9E6
:10107000234D4FF48270CDE9000569460294304655
:10108000FFF73AF9202000900120CDE901046946DC
:1010900030460394FFF730F94FF48260CDE9000544
:1010A000694602941748FFF727F9002211460820E5
:1010B000FFF760FA0820FFF751FA002211460A20D4
:1010C000FFF758FA0A20FFF749FA002211461720C5
:1010D000FFF750FA1720FFF741FA002211462820A7
:1010E000FFF748FA2820FFF739FA06B070BD000074
:1010F0001C3802400000024000002110000802409D
:101100000000111000040240FEE770470907090EB5
:10111000002806DA00F00F0000F1E02080F8141D2E
:10112000704700F1E02080F80014704710484178C3
:1011300009B101207047C2780AB1062070470279D0
:101140003AB1012AF4D18278322A07D94FF002004D
:10115000704782780F2AEBD90520704703D20F2AF7
:1011600001D9032070470F2AE2D204207047000003
:101170000C0000207047000038B51C4900230968A6
:101180001B4A11F0F00F23D118491C310C68E500FF
:10119000184C03D5216801F4C0540EE00D6845F0E9
:1011A00080550D600D6805F08055009524680D6828
:1011B00004F4C05425F080550D60B4F5C05F07D12C
:1011C000B0F5404F04D11068012340F004001060D6
:1011D000106820F0010018431060106800F0010052
:1011E000984201D0012038BD002038BD08380240A7
:1011F000003C024000700040704700000F484278F9
:101200000AB10120704781780F2901D2042070476C
:10121000C378002BF4D1037933B1012BF0D13229FB
:1012200006D94FF0020070470F29E9D90520704711
:10123000E6D20F29E4D90320704700000C000020FB
:1012400001498870704700000C000020002202292C
:101250000CD005290CD00223837059B1042909D080
:10126000032907D0062905D0C3707047827001E0BA
:1012700001218170C270704749B1022907D003294A
:1012800005D0042905D0052903D0022102E0002160
:1012900000E001210170704730B50C460546FFF7AC
:1012A000EBFF21462846FFF7D1FF2146284600F0F4
:1012B00031F821462846BDE8304000F007B800006C
:1012C0000149C870704700000C0000200022022372
:1012D00002290DD006290BD005290BD0837159B1F5
:1012E000022909D0052907D0062905D0C371704706
:1012F0008271F4E701218171C2717047014908715F
:10130000704700000C000020014908707047000081
:101310000C00002010B500230222022913D003295B
:1013200011D0042911D005290FD0027181B10229F1
:101330000ED004290CD003290AD0052908D006298B
:1013400006D0427110BD0371F0E701240471EDE78E
:10135000437110BDFFF7B8B810B592B0342168469C
:10136000FEF715FF14210DA8FEF711FF11480168C3
:1013700021F4C05141F40061016001210391022078
:101380001021009000240491CDE9090480040B9001
:1013900000010C906846FFF74FFA0F200D900320D4
:1013A000CDE90E04109401210DA81194FFF714F952
:1013B00012B010BD007000400F48016841F4807108
:1013C00001600D4908310A680C4B1A400A60026836
:1013D0000B4B1A400260026822F480220260086807
:1013E00020F47D0008600020091D086005494FF0C9
:1013F0000060086070470000003802400CC0FF88A1
:10140000FEFFFEEE08ED00E00F4A0021491C91426C
:10141000FCDB68B101280AD002280BD004280BD0CD
:1014200003280BD005280BD006280BD0FF207047CF
:10143000FEF7CCBEFFF77ABE00F008B8FFF7C4BDD8
:10144000FEF7FCBEFFF7DABE00E1F5050E48427874
:101450000AB101207047017939B10129F8D18178A9
:10146000322907D94FF00200704781780F29EFD950
:101470000520704703D20F2901D9032070470F2997
:10148000E6D20420704700000C000020FEE702E0D6
:1014900008C8121F08C1002AFAD1704770470020FF
:1014A00001E001C1121F002AFBD1704710B50628C8
:1014B00032D2DFE800F031030E111C27FEF74EFE9A
:1014C00000EBD07121F00101401AC0B2FFF71CFF00
:1014D00022E0FEF743FE1FE0FEF740FE00EBD07176
:1014E00021F00101401AC0B2FFF7EAFE14E0FEF756
:1014F00035FE652190FBF1F201FB1200C0B2FFF74F
:101500009FFE09E0FEF72AFE00EBD07121F00101F9
:10151000401AC0B2FFF7F2FE002010BD1CB5FEF766
:10152000DBFFFFF719FFFFF773FD6846FFF741FD8B
:101530001C4C00200728607031D2DFE800F0040A5C
:10154000121E18242A0000216846FFF7A5FE00207D
:1015500004E001216846FFF79FFE0120FFF754FFDA
:10156000E8E702216846FFF797FE0220F6E704212C
:101570006846FFF791FE0420F0E703216846FFF775
:101580008BFE0320EAE705216846FFF785FE05206C
:10159000E4E706216846FFF77FFE0620DEE7FF202E
:1015A0006070FCE700000020030406080C101820FF
:1015B00030000000000000000001020304060708DC
:1015C00009000000E41500080000002018000000D9
:1015D0008E140008FC15000818000020000400000C
:1015E0009E140008000000000000000068FF1F00BB
:0C15F000000000000000000000000000EF
:0400000508000125C9
:00000001FF
