:020000040800F2
:100000001004002039010008EF0E0008410E00081E
:10001000ED0E0008A50100084510000800000000D2
:10002000000000000000000000000000950F000824
:10003000A701000800000000110F0008970F00083A
:100040005301000853010008530100085301000840
:100050005301000853010008530100085301000830
:100060005301000853010008530100085301000820
:100070005301000853010008530100085301000810
:100080005301000853010008530100085301000800
:1000900053010008530100085301000853010008F0
:1000A00053010008530100085301000853010008E0
:1000B00053010008530100085301000853010008D0
:1000C00053010008530100085301000853010008C0
:1000D00053010008530100085301000853010008B0
:1000E00053010008530100085301000853010008A0
:1000F00053010008000000005301000853010008EC
:10010000530100085301000853010008530100087F
:1001100053010008530100085301000800000000CB
:1001200053010008DFF80CD000F02AF8004800471F
:100130006510000810040020064880470648004764
:10014000FEE7FEE7FEE7FEE7FEE7FEE7FEE7FEE787
:10015000FEE7FEE7F50F000825010008D2B201E036
:1001600000F8012B491EFBD270470022F6E710B5BC
:1001700013460A4604461946FFF7F0FF204610BD15
:10018000064C074D06E0E06840F0010394E80700E4
:1001900098471034AC42F6D3FFF7C8FFE0100008D0
:1001A00000110008FEE770472DE9F84FDFF880B135
:1001B00000234FF0010C4FF0030A4FF00F090BF131
:1001C000040EAEE00CFA03F614EA060270D04C6896
:1001D000022C01D0122C11D1DC0800EB84073C6A00
:1001E0005D07ED0E09FA05F824EA0804D1F810803D
:1001F00008FA05F848EA0408C7F8208007685D0097
:1002000091F804800AFA05F408F00308A74308FAF5
:1002100005F848EA0708C0F800804F68012F05D0AC
:10022000022F03D0112F01D0122F11D18768D1F8DE
:100230000C80A74308FA05F848EA0708C0F80880C8
:100240004768B7430E79C6F300169E403E434660AA
:10025000C668A6438C68AC403443C4604C68E40074
:100260005ED5344C256845F001052560246823F0EF
:10027000030504F0010400942F4C2E19B4689D0767
:100280002F0F09FA07F5AC432C4DA84201D10025E8
:100290001FE02B4DA84201D101251AE0294DA842AB
:1002A00001D1022515E0284DA84202D1032510E016
:1002B00036E0264DA84201D104250AE0244DA8428B
:1002C00001D1052505E0234DA84201D1062500E016
:1002D0000725BD402543B560DBF800405D464E680C
:1002E0009443F60300D514432C60DEF800407546B5
:1002F0004E689443B60300D514432C600C4D08356A
:100300002C684E689443F60200D514432C60084DC7
:100310000C352C684E689443B60200D514432C600B
:100320005B1C0A681446DA407FF44CAFBDE8F88FD6
:10033000000401402038024000000140000002405B
:100340000004024000080240000C0240001002407D
:1003500000140240001802400069084000D001204B
:1003600070470AB1816170470904FBE701480068E2
:10037000704700000400002002480168491C016029
:10038000704700000400002010B5032000F05AF868
:10039000002000F005F800F017F8002010BD000064
:1003A00010B5044607484FF47A710068B0FBF1F0CD
:1003B00000F032FD00222146501E00F023F80020FC
:1003C00010BD0000080000200D4808B5016841F08C
:1003D00000410160016801F000410091011F0A68BD
:1003E00042F001020A60096801F001010091016810
:1003F00041F080510160006800F08050009008BD1D
:1004000024380240F0B40E4B1B680C46C3F30223A1
:10041000C3F10705042D00D90425191D072901D2B0
:10042000002300E0DB1E012606FA05F1491E2140EB
:1004300099409E40761E16403143F0BC00F058BDF6
:100440000CED00E0064900F0070208684FF6FF03D4
:10045000184040EA0220034A104308607047000039
:100460000CED00E00000FA052DE9F047DFF8BC8153
:1004700005460E46D8F8000000F00100B04214D244
:10048000012E05D1D8F8001041F00401C8F8001081
:10049000D8F8001021F001013143C8F80010D8F855
:1004A000000000F00100B04271D12878604C800754
:1004B00005D52068A96820F0F0000843206028785E
:1004C000C00771D05A4A5A4B69680120083A2C3348
:1004D000022910D003292ED001292FD05FEA40270E
:1004E00097FAA7FCBCFA8CFC4CF0200C5FEA5C1C71
:1004F00004D0126803E04FF40037F1E71A6897FA66
:10050000A7F3B3FA83F303F01F039840024262D0CB
:10051000206820F0030008432060FFF727FF696888
:10052000074641F28830022910D003291CD0012946
:10053000814626D034E04FF00077D1E70227CFE79D
:10054000FFF714FFC11B494501D926E08146206809
:10055000C0F381000228F3D126E000BFFFF706FFB9
:10056000C11B494501D918E081462068C0F38100CC
:100570000328F3D118E000BFFFF7F8FEC11B49457F
:100580000BD82068C0F381000128F5D10CE022E0EF
:10059000FFF7ECFEC11B494502D90320BDE8F087F7
:1005A000206810F00C0FF3D1D8F80010404601F08D
:1005B0000101B14211D9012E03D1016841F00401BA
:1005C0000160016821F0010131430160006800F021
:1005D0000100B04201D00120E0E72878400705D5AE
:1005E0002068E96820F4E06008432060287800076C
:1005F00006D52068296920F4605040EAC1002060D7
:1006000000F01CF82168F02292FAA2F201F0F00149
:10061000B2FA82F2D140074A515CC84006490860EC
:100620000020FFF7BDFE0020B8E70000003C0240BC
:1006300008380240CD100008080000201E4A11684A
:1006400001F00C00042813D0082813D00C2813D074
:10065000101F006800F460414FF4604090FAA0F071
:10066000B0FA80F0C1404FF40040491C8840704708
:1006700012487047124870474FF4701393FAA3F36F
:1006800001F47010B3FA83F3D8400E4B01F440012B
:100690001268185C4FF4400393FAA3F3B3FA83F3A0
:1006A000D940491CD20301D5054A00E0034A504312
:1006B000B0FBF1F070470000083802400024F4005D
:1006C00000366E01C41000082DE9F84F0746007887
:1006D000FB4EFC4DC0074FF0010428D0F84808300D
:1006E00001684FF40038C1F38101022907D0016885
:1006F000C1F3810103291BD10068C00318D598FA02
:10070000A8F0B0FA80F040F02000400901D0306835
:1007100000E0286898FAA8F1B1FA81F101F01F0110
:1007200004FA01F108425CD0786800287BD058E0D8
:10073000786801280AD008B1052811D0306820F463
:1007400080303060306820F4802002E0306840F46F
:1007500080303060786828B3FFF708FE81460BE0F0
:10076000306840F480203060F0E700BFFFF7FEFD06
:10077000A0EB0900642872D898FAA8F0B0FA80F0CB
:1007800040F02000400901D0306800E0286898FA65
:10079000A8F1B1FA81F101F01F0104FA01F1084258
:1007A000E4D01EE0FFF7E2FD814605E0FFF7DEFD45
:1007B000A0EB09006428DED898FAA8F0B0FA80F01F
:1007C00040F02000400901D0306800E0286898FA25
:1007D000A8F1B1FA81F101F01F0104FA01F1084218
:1007E000E4D13878DFF8E08280074FF0000B4FF05B
:1007F00002095FD5B24808300168C1F381010129BF
:1008000007D00168C1F3810103291CD10068C0032E
:1008100019D499FAA9F0B0FA80F040F0200040090C
:1008200002D0306801E086E0286899FAA9F1B1FAAF
:1008300081F101F01F0104FA01F108422BD0F868A0
:10084000012878D127E0F868A8B394FAA4F0B0FAA8
:1008500080F048F82040FFF789FD824606E066E117
:10086000FFF784FDA0EB0A00022884D899FAA9F1C9
:10087000B1FA81F141F02001490901D0316800E06D
:10088000296899FAA9F0B0FA80F000F01F0004FA84
:1008900000F00142E4D08A48001D01684FF4F8538B
:1008A00093FAA3F33A69B3FA83F321F4F8519A4027
:1008B0001143016025E0FFE794FAA4F1B1FA81F158
:1008C00048F821B0FFF752FD824605E0FFF74EFDE4
:1008D000A0EB0A000228C8D899FAA9F0B0FA80F073
:1008E00040F02000400901D0306800E0286899FA03
:1008F000A9F1B1FA81F101F01F0104FA01F10842F6
:10090000E4D138784FF4007AC0067CD56C480830C2
:10091000006810F00C0F0FD0B9694FF480700029F7
:1009200072D090FAA0F0B0FA80F048F82040FFF7BB
:100930001DFD00907EE087E09AFAAAF0B0FA80F000
:1009400040F02000400901D0306800E028689AFAA1
:10095000AAF1B1FA81F101F01F0104FA01F1084294
:1009600002D0B86900286FD05548396A001D006868
:1009700000F4604081421AD9084600F0CBFA002802
:1009800062D14F48001D01683A6A21F46041114369
:10099000016001684FF07F4393FAA3F3FA69B3FA59
:1009A00083F321F07F419A401143016018E04448ED
:1009B000001D026822F460420A43026001684FF0A1
:1009C0007F4393FAA3F3FA69B3FA83F321F07F41EB
:1009D0009A4011430160386A00F09CFA0028CFD198
:1009E0004FF4604191FAA1F1386AB1FA81F1C8403F
:1009F0004FF40041401C8140314808300068F0222B
:100A000000F0F00001E070E040E092FAA2F2B2FAE9
:100A100082F2D0402D4A105CC1402D480160002078
:100A2000FFF7BEFC61E000BFFFF7A0FC0099401A91
:100A300002287CD89AFAAAF0B0FA80F040F02000A0
:100A4000400902D0306801E0BCE128689AFAAAF1B6
:100A5000B1FA81F101F01F0104FA01F10842E3D07B
:100A60001748001D01683A6A21F460411143016092
:100A700001684FF07F4393FAA3F3FA69B3FA83F363
:100A800021F07F419A40114301602EE090FAA0F0DE
:100A9000B0FA80F048F820B0FFF768FC009005E05D
:100AA000FFF764FC0099401A0228C2D89AFAAAF00B
:100AB000B0FA80F040F0200040090BD030680AE026
:100AC000003802403438024000004742CD10000890
:100AD0000800002028689AFAAAF1B1FA81F101F021
:100AE0001F0104FA01F10842DAD13878000753D522
:100AF000786948B394FAA4F0B0FA80F008EB80006B
:100B0000C0F88046FFF732FC009005E0FFF72EFCAE
:100B10000099401A02288CD899FAA9F0B0FA80F00E
:100B200040F04000B4EB501F02D1306801E08EE08D
:100B3000286899FAA9F1B1FA81F101F01F0104FACC
:100B400001F21042E2D027E094FAA4F1B1FA81F167
:100B500008EB8101C1F880B6FFF708FC009005E0C2
:100B6000FFF704FC0099401A022870D899FAA9F0FE
:100B7000B0FA80F040F04000B4EB501F01D1306873
:100B800000E0286899FAA9F1B1FA81F101F01F019A
:100B900004FA01F21042E3D1387840077BD59B4834
:100BA0004FF000090068C0000AD49848016841F07D
:100BB0008051016000684FF0010900F08050009002
:100BC00093480168C90511D4016841F4807101603E
:100BD000FFF7CCFB009005E0FFF7C8FB0099401A37
:100BE000642834D88A480068C005F5D5B86801285B
:100BF0000AD008B1052811D0286820F48070286038
:100C0000286820F4806002E0286840F48070286042
:100C1000B86848B3FFF7AAFB00900DE0286840F4DD
:100C200080602860F0E700BFFFF7A0FB0099411A41
:100C300041F2883081420AD89AFAAAF0B0FA80F0DC
:100C400040F04000B4EB501F02D1306801E095E065
:100C500028689AFAAAF1B1FA81F101F01F0104FAA9
:100C600001F21042E0D022E0FFF780FB009007E0A5
:100C7000FFF77CFB0099411A41F2883081427DD810
:100C80009AFAAAF0B0FA80F040F04000B4EB501F9E
:100C900002D1306801E012E028689AFAAAF1B1FAAC
:100CA00081F101F01F0104FA01F21042E0D1B9F123
:100CB000000F04D05548016821F080510160786A26
:100CC000E8B3DFF84891A9F11C09D9F80010C1F385
:100CD0008101032976D002284FF080714FF0007A0D
:100CE00058460BD091FAA1F1B1FA81F148F82100F0
:100CF000FFF73CFBB046074656466DE04FF080716B
:100D000091FAA1F1B1FA81F18A0042495050FFF7FE
:100D10002DFBB3468046564606E000BFFFF726FB94
:100D2000A0EB0800022854D896FAA6F0B0FA80F09A
:100D300040F02000400903D0DBF8000001E061E052
:100D4000286896FAA6F1B1FA81F101F01F0104FAC0
:100D500001F10842E2D1D7E90A103A6BD9F8003024
:100D6000014323F47D031A431143C9F800104FF0E7
:100D7000807090FAA0F0B0FA80F000E029E08100E5
:100D800024480C50FFF7F2FA074604E0FFF7EEFAAA
:100D9000C01B02281DD896FAA6F0B0FA80F040F0E9
:100DA0002000400902D0DBF8000000E0286896FA35
:100DB000A6F1B1FA81F101F01F0104FA01F1084234
:100DC000E4D01FE020E000BFFFF7D0FAC01B0228EC
:100DD00002D90320BDE8F88F96FAA6F0B0FA80F0A9
:100DE00040F02000400902D0D8F8000000E0286858
:100DF00096FAA6F1B1FA81F101F01F0104FA01F1AE
:100E00000842E1D10020E5E70120E3E72438024071
:100E1000007000400000474210B5401EB0F1807FD6
:100E200001D3012010BD4FF0E02460610F21601755
:100E300000F05EF80020A06107202061002010BDB6
:100E4000FEE70000F0B587B014216846FFF78DF982
:100E50002248016841F004010160016801F00401C9
:100E60000591016841F001010160016801F0010193
:100E70000591016841F0020101600068184E00F020
:100E800002004FF44A750590002229463046FFF7CC
:100E900068FA144F002240213846FFF762FA002416
:100EA0004FF40050CDE9000469460F480294FFF763
:100EB0007BF900950125CDE901546946304603943C
:100EC000FFF772F940200090CDE901546946384699
:100ED0000394FFF769F907B0F0BD00001C38024029
:100EE000000002400004024000080240FEE7704794
:100EF0000907090E002806DA00F00F0000F1E020D3
:100F000080F8141D704700F1E02080F8001470474D
:100F10007047000038B51C49002309681B4A11F0CE
:100F2000F00F23D118491C310C68E500184C03D58B
:100F3000216801F4C0540EE00D6845F080550D6045
:100F40000D6805F08055009524680D6804F4C054C0
:100F500025F080550D60B4F5C05F07D1B0F5404F66
:100F600004D11068012340F004001060106820F0E4
:100F7000010018431060106800F00100984201D091
:100F8000012038BD002038BD08380240003C024036
:100F9000007000407047FFF7EFB9000010B592B045
:100FA00034216846FFF7E1F814210DA8FFF7DDF8BA
:100FB0000F48016821F4C05141F400610160102024
:100FC000009001200024CDE906044FF42040CDE933
:100FD00008046846FFF778FB0F20CDE90D040F9455
:100FE000109400210DA81194FFF73EFA12B010BD25
:100FF000007000400F48016841F4807101600D49A4
:1010000008310A680C4B1A400A6002680B4B1A4000
:101010000260026822F480220260086820F47D00E9
:1010200008600020091D086005494FF00060086055
:1010300070470000003802400CC0FF88FEFFFEEE43
:1010400008ED00E0FEE702E008C8121F08C1002A10
:10105000FAD170477047002001E001C1121F002A39
:10106000FBD17047FFF790F9FFF798FFFFF7EAFE13
:10107000DFF84490114F124E00244FF400584FF403
:10108000807541464846FFF767F9610640EA1164FA
:101090003880FE2CF5D1002229463046FFF761F951
:1010A000012229463046FFF75CF9002229463046E6
:1010B000FFF757F9E5E700000008024000000020B4
:1010C00000000240030406080C1018203000000045
:1010D00000000000000102030406070809000000E8
:1010E00000110008000000200C000000461000085D
:1010F0000C1100080C000020040400005610000829
:0C110000000000000000000068FF1F005D
:0400000508000125C9
:00000001FF
