:020000040800F2
:100000005004002001010008370D0008B50C00085D
:10001000350D00086D0100084F10000800000000B9
:100020000000000000000000000000005B0D000860
:100030006F01000800000000590D0008890D00083C
:100040001B0100081B0100081B0100081B01000820
:100050001B0100081B0100081B0100081B01000810
:100060001B0100081B0100081B0100081B01000800
:100070001B0100081B0100081B0100081B010008F0
:100080001B0100081B0100081B0100081B010008E0
:100090001B0100081B0100081B0100081B010008D0
:1000A0001B0100081B0100081B0100081B010008C0
:1000B0001B0100081B0100081B0100081B010008B0
:1000C0001B0100081B0100081B0100081B010008A0
:1000D0001B0100081B0100081B0100081B01000890
:1000E0001B0100081B0100081B010008DFF80CD0F1
:1000F00000F02AF800480047711000085004002062
:100100000648804706480047FEE7FEE7FEE7FEE7B1
:10011000FEE7FEE7FEE7FEE7FEE7FEE7D50D000897
:10012000ED000008D2B201E000F8012B491EFBD21D
:1001300070470022F6E710B513460A4604461946F2
:10014000FFF7F0FF204610BD064C074D06E0E068C3
:1001500040F0010394E8070098471034AC42F6D30E
:10016000FFF7C8FFE010000800110008FEE7704725
:1001700070B5044600F0ECF80546601C02D0044857
:100180000078044400F0E4F8401BA042FAD370BDAC
:10019000000000202DE9F84FDFF890A100220AF1BD
:1001A000040B144601274FF00F090BF1040E00BF9A
:1001B0000B6807FA04F52B40AB4274D1DFF870C12D
:1001C0004E68A6EB0C0866452BD00DDC032E34D010
:1001D00005DC36B3012E19D0022E2FD11BE0112ED3
:1001E00016D0122E2AD119E0B8F5881F19D006DCD6
:1001F000B8F5803F15D0B8F5801F1FD111E0B8F5D4
:10020000001F0ED0B8F5041F18D10AE0CA6815E027
:10021000CA68121D12E0CA6808320FE0CA680C32C0
:100220000CE08A682AB1012A4FF0080203D0456128
:1002300004E0042202E0056100E00022FF2B01D867
:10024000064601E000F104064FEA840501D9A5F154
:100250002005D6F800C009FA05F82CEA080C02FAC5
:1002600005F54CEA050CC6F800C04D68ED0057D501
:10027000304DAE6946F00106AE61AD6924F003066B
:1002800005F0010500952C4D06EB050CDCF8085037
:10029000A6074FEA167809FA08F6B543274EB0428A
:1002A00002D1002610E03BE0254EB04201D10126EC
:1002B0000AE0244EB04201D1022605E0224EB042AF
:1002C00001D1032600E0042606FA08F62E43CCF8F6
:1002D00008604D68DAF80060ED03554601D51E430D
:1002E00000E09E432E604D68DBF80060AD035D4684
:1002F00001D51E4300E09E432E604D68DEF800608D
:10030000ED02754601D51E4300E09E432E604D6808
:10031000AD020E4D2E6801D51E4300E09E432E60B7
:10032000641C102CFFF444AFBDE8F88F00040140BA
:1003300000001110001002400000014000080140C0
:10034000000C014000100140001401400C04014069
:100350000148806870470000000000200248816862
:10036000027811448160704700000020074810B5F2
:10037000016841F010010160032000F067F80020DF
:1003800000F006F800F024F8002010BD0020024024
:1003900070B50D4D04464FF47A712878B1FBF0F03A
:1003A0000A490968B1FBF0F000F0D0FA48B9102C06
:1003B00007D200222146501E00F028F800206C6071
:1003C00070BD012070BD0000000000200C00002066
:1003D0000C4808B5816941F001018161816901F032
:1003E00001010091C16941F08051C161C06900F013
:1003F000805000900448416821F0E06141F0806144
:10040000416008BD0010024000000140F0B40E4BF6
:100410001B680C46C3F30223C3F10705042D00D962
:100420000425191D072901D2002300E0DB1E012647
:1004300006FA05F1491E214099409E40761E16405D
:100440003143F0BC00F078BC0CED00E0064900F050
:10045000070208684FF6FF03184040EA0220034AEB
:1004600010430860704700000CED00E00000FA0542
:100470002DE9F047DFF8548105460E46D8F8000014
:1004800000F00700B0420CD2D8F8001021F00701AC
:100490003143C8F80010D8F8000000F00700B0425F
:1004A0006FD128684A4C810712D5400703D5606890
:1004B00040F4E06060602878000703D5606840F48D
:1004C000605060606068A96820F0F00008436060D8
:1004D0002878C00744D06868012816D0216802280F
:1004E00016D0890700294CDA616821F00301014325
:1004F0006160FFF72DFF6968074641F288300129E6
:100500000ED00229814618D026E021688903E9E748
:100510008901E7E7FFF71CFFC11B494501D918E036
:1005200081466068C0F381000128F3D118E000BF64
:10053000FFF70EFFC11B49450BD86068C0F381006F
:100540000228F5D10CE000BFFFF702FFC11B4945AF
:1005500002D90320BDE8F087606810F00C0FF3D1DA
:10056000D8F80010404601F00701B1420BD90168EC
:1005700021F0070131430160006800F00700B0423C
:1005800001D00120E6E72878400705D56068E968D2
:1005900020F4E060084360602878000706D56068B2
:1005A000296920F4605040EAC100606000F016F84C
:1005B0006168084AC1F30311515CC84006490860EC
:1005C0000020FFF7E5FE0020C4E700000020024005
:1005D00000100240D01000080C00002012A185B0CD
:1005E0000FC98DE80F0014A0144A006804905168E8
:1005F000134801F00C03042B10D0082B0ED1C1F3CB
:100600008343C9031DF803000AD5516804AAC1F346
:100610004041515C0A4A5043B0FBF1F005B07047CD
:1006200008494843FAE700000203040506070809E1
:100630000A0B0C0D0E0F10100102000000100240FA
:1006400000127A0000093D002DE9F84F04460078B9
:10065000B94DC00748D06868C0F38100012807D0B1
:100660006868C0F38100022809D16868C00306D514
:100670002868800338D5606800286FD034E060684F
:10068000B0F5803F0BD010B1B0F5A02F11D0286885
:1006900020F480302860286820F4802002E0286858
:1006A00040F480302860606888B1FFF751FE06464C
:1006B00009E0286840F480202860F0E7FFF748FE52
:1006C000801B642875D828688003F7D50CE0FFF7F5
:1006D0003FFE064605E000BFFFF73AFE801B642898
:1006E000F0D828688003F7D42078944E80074FF024
:1006F00001094FF000083BD5686810F00C0F07D0D7
:100700006868C0F38100022809D16868C00306D474
:100710002868800714D5206901281FD110E02069BE
:10072000B0B1C6F80090FFF713FE074605E000BF22
:10073000FFF70EFEC01B0228C4D828688007F7D533
:100740002868616920F0F80040EAC10028600FE0E5
:10075000C6F80080FFF7FCFD074606E0E9E000BFB1
:10076000FFF7F6FDC01B022823D828688007F7D4BE
:10077000207800072CD57248A169D9B1C0F8009043
:10078000FFF7E6FD074604E0FFF7E2FDC01B022885
:100790000FD8686A8007F7D56A484FF4FA510068A5
:1007A000B0FBF1F0009000BF0098411E0091FAD21A
:1007B0000EE080E0C0F80080FFF7CAFD074604E0C5
:1007C000FFF7C6FDC01B022875D8686A8007F7D4FA
:1007D0002078400760D5E8690027C00008D4E869A0
:1007E00040F08050E861E869012700F080500090F7
:1007F00055480168C90513D40168834641F48071E6
:100800000160FFF7A5FD824606E000BFFFF7A0FDEF
:10081000A0EB0A0064284ED8DBF80000C005F5D52F
:10082000E06801280AD008B1052813D0286A20F012
:1008300001002862286A20F0040002E0286A40F0E3
:1008400001002862E06841F2883B98B1FFF780FD23
:1008500082460BE0286A40F004002862EEE700BF01
:10086000FFF776FDA0EB0A0159455AD8286A8007A0
:10087000F6D50CE0FFF76CFD824605E0FFF768FD5A
:10088000A0EB0A0159454CD8286A8007F6D41FB15D
:10089000E86920F08050E861E06988B36968C1F3D5
:1008A0008101022945D00228C6F8608004D0FFF7F4
:1008B0004FFD044638E034E0FFF74AFD074604E008
:1008C000FFF746FDC01B02282BD828688001F7D40B
:1008D000206AB0F5803F05D16868A16820F4003037
:1008E00008436860D4E908010843696821F4741179
:1008F00008436860C6F86090FFF72AFD044606E0EA
:1009000015E000BFFFF724FD001B022809D8286866
:100910008001F7D50BE000BFFFF71AFD001B02288E
:1009200002D90320BDE8F88F28688001F4D40020A4
:10093000F8E70120F6E70000001002400000424204
:10094000800442420C0000200070004010B5401EA0
:10095000B0F1807F01D3012010BD4FF0E024606131
:100960000F21601700F0E8F90020A0610720206146
:10097000002010BD30B590F83C20012A20D0012283
:1009800080F83C20022380F83D3003685C6824F046
:1009900070045C6003685C680D682C435C600368ED
:1009A0009C6824F080049C6003689C6849680C4340
:1009B0009C6080F83D20002180F83C10084630BD46
:1009C000022030BD10B5040003D094F83D0010B1F2
:1009D00007E0012010BD002084F83C00204600F014
:1009E0000DF8022084F83D00211D206800F016FA61
:1009F000012084F83D00002010BD000008B500680B
:100A00000649884208D10648C16941F00401C16124
:100A1000C06900F00400009008BD0000000800401C
:100A200000100240022180F83D1001680A6842F07F
:100A300001020A60012180F83D100020704770B566
:100A4000044690F83C00012817D0012584F83C505A
:100A5000022084F83D002068826822F0770222F4A8
:100A60007F4282600868502837D00DDC202859D09A
:100A700005DC88B3102841D151E0022070BD302838
:100A800053D040283AD13FE060282ED070280BD0B8
:100A9000B0F5805F03D0B0F5005F2FD110E0206883
:100AA000816821F0070115E0CB68D1E901212068B8
:100AB00000F0F5F92168886840F0770088601DE053
:100AC000CB68D1E90121206800F0E9F9206881684C
:100AD00041F48041816011E01EE0CA6849682068E5
:100AE00000F092FA5021206806E0CA684968206840
:100AF00000F09BFA6021206800F0DBF984F83D509B
:100B0000002084F83C0070BDCA684968206800F085
:100B10007BFA40212068EFE700212068ECE71021F4
:100B20002068E9E720212068E6E730212068E3E734
:100B300000B585B0002100910191029103910068F8
:100B40000B49884211D10B48816941F0080181614C
:100B50008069694600F0080004904020009002205F
:100B6000019003900448FFF715FB05B000BD00009D
:100B70000008004000100240000C014070B504461F
:100B800090F83C000D4601280DD0012684F83C6009
:100B9000022084F83D0042B1042A18D0082A2AD045
:100BA0000C2A4DD139E0022070BD206800F08AF98E
:100BB0002068816941F0080181612068816921F024
:100BC00004018161206881692A69114311E020686C
:100BD00000F0A0F92068816941F40061816120681A
:100BE000816921F480618161206881692A6941EA13
:100BF0000221816124E0206800F0B8F92068C16911
:100C000041F00801C1612068C16921F00401C1619E
:100C10002068C1692A69114311E0206800F0D2F907
:100C20002068C16941F40061C1612068C16921F493
:100C30008061C1612068C1692A6941EA0221C161FC
:100C400084F83D60002084F83C0070BD10B50400BD
:100C500003D094F83D0010B107E0012010BD002042
:100C600084F83C00204600F00CF8022084F83D0097
:100C7000211D206800F0D2F8012084F83D000020FA
:100C800010BD704710B504460068012200F0FCF862
:100C900007492068884203D1416C41F40041416416
:100CA0002068016841F001010160002010BD0000D2
:100CB000002C0140FEE7000010B58EB00024079420
:100CC000089409940A940B941C2168460C94FFF72D
:100CD00030FA17481549C0E900144FF47A71C0E999
:100CE000024104618461FFF76DFE4FF4805007906C
:100CF00007A90F48FFF7A3FE0D48FFF7A7FF0B94C6
:100D00000BA90B480C94FFF735FE60200090C8201B
:100D1000CDE901040022694605480494FFF72EFF3F
:100D20000348FFF705FF0EB010BD000000080040AB
:100D300010000020FEE770470907090E002806DAB8
:100D400000F00F0000F1E02080F8141D704700F162
:100D5000E02080F8001470477047704710B588B0E5
:100D600004461C216846FFF7E4F96020CDE9000441
:100D7000002002900246049069460248FFF7FEFEFA
:100D800008B010BD10000020FFF7E8BA10B590B011
:100D900028216846FFF7CDF914210AA8FFF7C9F901
:100DA0000220009001200490102000240590079458
:100DB0006846FFF749FC0F20CDE90A044FF4E060D4
:100DC000CDE90C400E9000210AA8FFF751FB10B0AE
:100DD00010BD00000D48016841F00101016041684B
:100DE0000B4A1140416001680A4A114001600168E4
:100DF00021F480210160416821F4FE0141604FF43B
:100E00001F0181600449C003086070470010024060
:100E10000000FFF8FFFFF6FE08ED00E0F0B5026805
:100E2000164B174C174D4FF08047984205D0B842EB
:100E300003D0A04201D0A84203D122F070064A6834
:100E40003243984205D0B84203D0A04201D0A84214
:100E500003D122F44074CA68224322F080044A6914
:100E6000224302608A68C2620A688262984201D1A3
:100E70000969016301214161F0BD0000002C0140BE
:100E8000000400400008004010B50123046A8B40B4
:100E90009C430462036A8A401343036210BD10B589
:100EA000846842EA032224F47F440A432243826096
:100EB00010BD826822F070020A4342F0070181608F
:100EC0007047000030B5026A22F001020262026A35
:100ED0004368846924F073050C682C4322F00205F2
:100EE0008A682A430A4DA8420BD122F00805CA6835
:100EF00023F440732A434D6922F004021D438B6999
:100F00002B434360846149684163026230BD000045
:100F1000002C014030B5026A22F010020262026A1F
:100F2000436884690D6824F4E64444EA05248D6826
:100F300022F0200242EA05120B4DA8420ED1CD68E4
:100F400022F0800242EA05124D6923F4406343EA2D
:100F500085038D6922F0400243EA85034360846182
:100F600049688163026230BD002C014030B5026ADD
:100F700022F480720262036A4268C46923F4007337
:100F800024F073050C682C438D6843EA05230C4D4F
:100F9000A8420ED1CD6823F4006343EA05234D69CE
:100FA00022F4405242EA05128D6923F4806342EA3A
:100FB00005124260C4614968C163036230BD00002C
:100FC000002C014030B5026A22F480520262046AA9
:100FD0004268C3690D6823F4E64343EA05238D683C
:100FE00024F4005444EA0534064DA84204D14D6966
:100FF00022F4804242EA85124260C361496801647A
:10100000046230BD002C014010B5036A046A24F06C
:1010100001040462846924F0F00444EA021423F019
:101020000A020A438461026210BD10B5036A23F00C
:10103000100303628369046A23F4704343EA0232B3
:1010400024F0A00343EA01118261016210BDFEE7B2
:1010500002E008C8121F08C1002AFAD17047704781
:10106000002001E001C1121F002AFBD170470000DF
:1010700008B5FFF77BF9FFF789FE1348816941F056
:1010800008018161806900F008000090FFF714FEFC
:101090000E48FFF7C7FC00210C48FFF7F3FD0024C2
:1010A0004FF4FA756E002846FFF762F80A34A0B2D2
:1010B0000446FFF753FE00210448FFF7E3FDB44266
:1010C000F1D10024EFE700000010024010000020E2
:1010D00000000000000000000102030406070809E8
:1010E000001100080000002010000000501000084F
:1010F00010110008100000204004000060100008DB
:1011000001000000100000000000000000A24A04DE
:04000005080000ED02
:00000001FF
