:020000040800F2
:100000005004002001010008D71100085511000814
:10001000D51100081B0600085F150008000000004D
:10002000000000000000000000000000FB110008BC
:100030001D06000800000000F911000899120008D0
:100040001B0100081B0100081B0100081B01000820
:100050001B0100081B0100081B0100081B01000810
:100060001B0100081B0100081B0100081B01000800
:100070001B0100081B0100081B0100081B010008F0
:100080001B0100081B0100081B0100081B010008E0
:100090001B0100081B0100081B0100081B010008D0
:1000A0001B0100081B0100081B0100081B010008C0
:1000B0001B0100081B0100081B0100081B010008B0
:1000C0001B0100081B0100081B0100081B010008A0
:1000D0001B0100081B0100081B0100081B01000890
:1000E0001B0100081B0100081B010008DFF80CD0F1
:1000F00000F072FA00480047811500085004002003
:100100000648804706480047FEE7FEE7FEE7FEE7B1
:10011000FEE7FEE7FEE7FEE7FEE7FEE7E512000882
:10012000ED000008202A04DB203A21FA02F0002129
:10013000704721FA02F3D040C2F1200291400843F7
:1001400019467047D2B201E000F8012B491EFBD2DC
:1001500070470022F6E710B513460A4604461946D2
:10016000FFF7F0FF204610BD80EA010210B502F053
:100170000043400022D04A001FD0010E01EB126163
:10018000C0F35600C2F3560240F4000042F40002ED
:10019000A0FB022000047F39140400D0401C50EA68
:1001A000124001D44000491EC2B20C0604EBD0102C
:1001B000401C4008802A02D003E0002010BD20F03F
:1001C0000100002900DA0020184310BD30B480EA95
:1001D000010202F0004530F0004221F0004013D04F
:1001E00090B1C30DD40DC2F31601C0F31600E41A8A
:1001F00041F4000140F400027D34914201D3641CBB
:1002000000E04900002C02DA30BC002070474FF4B7
:1002100000000023914201D3891A034340084FEAAA
:100220004101F7D151B1914202D14FF0004105E0B7
:1002300002D24FF0010101E06FF0010103EBC45065
:10024000284430BC00F033B92DE9FE4F81EA0304A5
:1002500004F0004421F0004100944FF0000B23F023
:10026000004350EA01045ED052EA03045BD0C3F3BA
:100270000A54C1F30A552C44A4F2F3340194A0FBB0
:100280000254C1F3130141F48011C3F3130343F487
:10029000801301FB024400FB034E840A970A44EAE0
:1002A000815447EA8357A4FB076802958D0A05FB32
:1002B00007854FEA932C04FB0C542705029D4FEA57
:1002C000065847EA1637B5EB08056EEB070C870EA4
:1002D000920E47EA811742EA8312A7FB0201B6EBAE
:1002E0000B0164EB00042B0D43EA0C335E1844EB66
:1002F0001C50DA465146E7FB0201C5F313044FEAEE
:100300000B3343EA14534FEA0432019C43EA0603D9
:10031000A4F10C040294009CCDE900B400F00DF9A6
:1003200003B0BDE8F08F00200146F9E72DE9F04D5C
:1003300081EA030404F0004B21F0004514464FF01D
:10034000000A23F0004150EA050220D054EA0102DD
:100350001DD0C5F30A570246C5F31303C1F31300BA
:10036000C1F30A5640F4801543F48013A7EB060846
:10037000101BD64608F2FD3873EB050002D308F1D6
:10038000010801E092185B41B8F1000F03DA002088
:100390000146BDE8F08D00204FF4801106468446EA
:1003A0000EE0171B73EB050705D3121B63EB050368
:1003B00006434CEA010C49084FEA300092185B41B1
:1003C00050EA0107EDD152EA030012D082EA04009C
:1003D00083EA0501084305D0101BAB4106D2012278
:1003E000002306E000224FF0004302E06FF001021C
:1003F00053101AEB06004CEB085110EB0A0041EBCE
:100400000B01BDE8F04D00F089B89623002211469B
:1004100000F056B80EB540F2334102910021CDE90B
:1004200000110A460B4600F088F803B000BD20F02A
:100430000040C10DC0F3160040F400007F2901DA2E
:1004400000207047962903DCC1F19601C84070472F
:10045000963988407047C1F30A5210B5C1F31301B1
:1004600040F2FF3341F480119A4201DA002010BDBE
:1004700040F233439A42A2F2334203DC5242FFF786
:1004800051FE10BD904010BD00F0004230F0004021
:100490000AD0C10D01F56071C0F3160042EA0151A6
:1004A000C2084007114370470020014670470029E9
:1004B000A8BF7047401C490008BF20F001007047EA
:1004C00010B4B0FA80FC00FA0CF050EA010404BF4A
:1004D00010BC704749B1CCF1200421FA04F411FAA0
:1004E0000CF118BF012121430843A3EB0C01CB1DE4
:1004F0004FEA00614FEA102042BF002010BC704755
:1005000000EBC35010440029A4BF10BC7047401C2E
:10051000490008BF20F0010010BC704710B5141E40
:1005200073F1000408DA401C41F1000192185B41AC
:100530001A4301D120F0010010BD2DE9F04D924683
:100540009B4611B1B1FA81F202E0B0FA80F220329A
:10055000904600F053F804460F4640EA0A0041EA8C
:100560000B0153465A46084313D0114653EA010083
:1005700019D0C8F140025046FFF7D4FD05460E469B
:1005800050465946424600F039F8084305D001204C
:1005900004E020463946BDE8F08D0020054346EAD8
:1005A000E0762C4337430A986305E40AA0EB080081
:1005B0000022FD0A44EA47540A3002D500200146D1
:1005C000E9E7010510196941DDE9084500196941AC
:1005D000BDE8F04DA2E70000064C074D06E0E068DC
:1005E00040F0010394E8070098471034AC42F6D37A
:1005F000FFF780FDEC1500080C160008202A04DB2C
:10060000203A00FA02F1002070479140C2F1200325
:1006100020FA03F3194390407047FEE77047704794
:1006200070B5044600F0ECF80546601C02D00448A2
:100630000078044400F0E4F8401BA042FAD370BDF7
:10064000000000202DE9F84FDFF890A100220AF108
:10065000040B144601274FF00F090BF1040E00BFE5
:100660000B6807FA04F52B40AB4274D1DFF870C178
:100670004E68A6EB0C0866452BD00DDC032E34D05B
:1006800005DC36B3012E19D0022E2FD11BE0112E1E
:1006900016D0122E2AD119E0B8F5881F19D006DC21
:1006A000B8F5803F15D0B8F5801F1FD111E0B8F51F
:1006B000001F0ED0B8F5041F18D10AE0CA6815E073
:1006C000CA68121D12E0CA6808320FE0CA680C320C
:1006D0000CE08A682AB1012A4FF0080203D0456174
:1006E00004E0042202E0056100E00022FF2B01D8B3
:1006F000064601E000F104064FEA840501D9A5F1A0
:100700002005D6F800C009FA05F82CEA080C02FA10
:1007100005F54CEA050CC6F800C04D68ED0057D54C
:10072000304DAE6946F00106AE61AD6924F00306B6
:1007300005F0010500952C4D06EB050CDCF8085082
:10074000A6074FEA167809FA08F6B543274EB042D5
:1007500002D1002610E03BE0254EB04201D1012637
:100760000AE0244EB04201D1022605E0224EB042FA
:1007700001D1032600E0042606FA08F62E43CCF841
:1007800008604D68DAF80060ED03554601D51E4358
:1007900000E09E432E604D68DBF80060AD035D46CF
:1007A00001D51E4300E09E432E604D68DEF80060D8
:1007B000ED02754601D51E4300E09E432E604D6854
:1007C000AD020E4D2E6801D51E4300E09E432E6003
:1007D000641C102CFFF444AFBDE8F88F0004014006
:1007E000000011100010024000000140000801400C
:1007F000000C014000100140001401400C040140B5
:1008000001488068704700000000002002488168AD
:10081000027811448160704700000020074810B53D
:10082000016841F010010160032000F05FF8002032
:1008300000F006F800F024F8002010BD002002406F
:1008400070B50D4D04464FF47A712878B1FBF0F085
:100850000A490968B1FBF0F000F0C8FA48B9102C59
:1008600007D200222146501E00F020F800206C60C4
:1008700070BD012070BD0000000000200C000020B1
:10088000094808B5816941F001018161816901F080
:1008900001010091C16941F08051C161C06900F05E
:1008A0008050009008BD000000100240F0B40E4BD4
:1008B0001B680C46C3F30223C3F10705042D00D9BE
:1008C0000425191D072901D2002300E0DB1E0126A3
:1008D00006FA05F1491E214099409E40761E1640B9
:1008E0003143F0BC00F078BC0CED00E0064900F0AC
:1008F000070208684FF6FF03184040EA0220034A47
:1009000010430860704700000CED00E00000FA059D
:100910002DE9F047DFF8548105460E46D8F800006F
:1009200000F00700B0420CD2D8F8001021F0070107
:100930003143C8F80010D8F8000000F00700B042BA
:100940006FD128684A4C810712D5400703D56068EB
:1009500040F4E06060602878000703D5606840F4E8
:10096000605060606068A96820F0F0000843606033
:100970002878C00744D06868012816D0216802286A
:1009800016D0890700294CDA616821F00301014380
:100990006160FFF735FF6968074641F28830012939
:1009A0000ED00229814618D026E021688903E9E7A4
:1009B0008901E7E7FFF724FFC11B494501D918E08A
:1009C00081466068C0F381000128F3D118E000BFC0
:1009D000FFF716FFC11B49450BD86068C0F38100C3
:1009E0000228F5D10CE000BFFFF70AFFC11B494503
:1009F00002D90320BDE8F087606810F00C0FF3D136
:100A0000D8F80010404601F00701B1420BD9016847
:100A100021F0070131430160006800F00700B04297
:100A200001D00120E6E72878400705D56068E9682D
:100A300020F4E060084360602878000706D560680D
:100A4000296920F4605040EAC100606000F016F8A7
:100A50006168084AC1F30311515CC8400649086047
:100A60000020FFF7EDFE0020C4E700000020024058
:100A700000100240DC1500080C00002012A185B017
:100A80000FC98DE80F0014A0144A00680490516843
:100A9000134801F00C03042B10D0082B0ED1C1F326
:100AA0008343C9031DF803000AD5516804AAC1F3A2
:100AB0004041515C0A4A5043B0FBF1F005B0704729
:100AC00008494843FAE7000002030405060708093D
:100AD0000A0B0C0D0E0F1010010200000010024056
:100AE00000127A0000093D002DE9F84F0446007815
:100AF000B94DC00748D06868C0F38100012807D00D
:100B00006868C0F38100022809D16868C00306D56F
:100B10002868800338D5606800286FD034E06068AA
:100B2000B0F5803F0BD010B1B0F5A02F11D02868E0
:100B300020F480302860286820F4802002E02868B3
:100B400040F480302860606888B1FFF759FE06469F
:100B500009E0286840F480202860F0E7FFF750FEA5
:100B6000801B642875D828688003F7D50CE0FFF750
:100B700047FE064605E000BFFFF742FE801B6428E3
:100B8000F0D828688003F7D42078944E80074FF07F
:100B900001094FF000083BD5686810F00C0F07D032
:100BA0006868C0F38100022809D16868C00306D4D0
:100BB0002868800714D5206901281FD110E020691A
:100BC000B0B1C6F80090FFF71BFE074605E000BF76
:100BD000FFF716FEC01B0228C4D828688007F7D587
:100BE0002868616920F0F80040EAC10028600FE041
:100BF000C6F80080FFF704FE074606E0E9E000BF04
:100C0000FFF7FEFDC01B022823D828688007F7D411
:100C1000207800072CD57248A169D9B1C0F800909E
:100C2000FFF7EEFD074604E0FFF7EAFDC01B0228D0
:100C30000FD8686A8007F7D56A484FF4FA51006800
:100C4000B0FBF1F0009000BF0098411E0091FAD275
:100C50000EE080E0C0F80080FFF7D2FD074604E018
:100C6000FFF7CEFDC01B022875D8686A8007F7D44D
:100C70002078400760D5E8690027C00008D4E869FB
:100C800040F08050E861E869012700F08050009052
:100C900055480168C90513D40168834641F4807141
:100CA0000160FFF7ADFD824606E000BFFFF7A8FD3B
:100CB000A0EB0A0064284ED8DBF80000C005F5D58B
:100CC000E06801280AD008B1052813D0286A20F06E
:100CD00001002862286A20F0040002E0286A40F03F
:100CE00001002862E06841F2883B98B1FFF788FD77
:100CF00082460BE0286A40F004002862EEE700BF5D
:100D0000FFF77EFDA0EB0A0159455AD8286A8007F3
:100D1000F6D50CE0FFF774FD824605E0FFF770FDA5
:100D2000A0EB0A0159454CD8286A8007F6D41FB1B8
:100D3000E86920F08050E861E06988B36968C1F330
:100D40008101022945D00228C6F8608004D0FFF74F
:100D500057FD044638E034E0FFF752FD074604E053
:100D6000FFF74EFDC01B02282BD828688001F7D45E
:100D7000206AB0F5803F05D16868A16820F4003092
:100D800008436860D4E908010843696821F47411D4
:100D900008436860C6F86090FFF732FD044606E03D
:100DA00015E000BFFFF72CFD001B022809D82868BA
:100DB0008001F7D50BE000BFFFF722FD001B0228E2
:100DC00002D90320BDE8F88F28688001F4D4002000
:100DD000F8E70120F6E70000001002400000424260
:100DE000800442420C0000200070004010B5401EFC
:100DF000B0F1807F01D3012010BD4FF0E02460618D
:100E00000F21601700F0E8F90020A06107202061A1
:100E1000002010BD30B590F83C20012A20D00122DE
:100E200080F83C20022380F83D3003685C6824F0A1
:100E300070045C6003685C680D682C435C60036848
:100E40009C6824F080049C6003689C6849680C439B
:100E50009C6080F83D20002180F83C10084630BDA1
:100E6000022030BD10B5040003D094F83D0010B14D
:100E700007E0012010BD002084F83C00204600F06F
:100E80000DF8022084F83D00211D206800F04EFA84
:100E9000012084F83D00002010BD000008B5006866
:100EA0000649884208D10648C16941F00401C16180
:100EB000C06900F00400009008BD00000008004078
:100EC00000100240022180F83D1001680A6842F0DB
:100ED00001020A60012180F83D100020704770B5C2
:100EE000044690F83C00012817D0012584F83C50B6
:100EF000022084F83D002068826822F0770222F404
:100F00007F4282600868502837D00DDC202859D0F5
:100F100005DC88B3102841D151E0022070BD302893
:100F200053D040283AD13FE060282ED070280BD013
:100F3000B0F5805F03D0B0F5005F2FD110E02068DE
:100F4000816821F0070115E0CB68D1E90121206813
:100F500000F02DFA2168886840F0770088601DE075
:100F6000CB68D1E90121206800F021FA206881686E
:100F700041F48041816011E01EE0CA684968206840
:100F800000F0CAFA5021206806E0CA684968206863
:100F900000F0D3FA6021206800F013FA84F83D5085
:100FA000002084F83C0070BDCA684968206800F0E1
:100FB000B3FA40212068EFE700212068ECE7102118
:100FC0002068E9E720212068E6E730212068E3E790
:100FD00000B585B000210091019102910391006854
:100FE0000B49884211D10B48816941F008018161A8
:100FF0008069694600F008000490402000900220BB
:10100000019003900448FFF71DFB05B000BD0000F0
:101010000008004000100240000C014070B504467A
:1010200090F83C000D4601280DD0012684F83C6064
:10103000022084F83D0042B1042A18D0082A2AD0A0
:101040000C2A4DD139E0022070BD206800F0C2F9B1
:101050002068816941F0080181612068816921F07F
:1010600004018161206881692A69114311E02068C7
:1010700000F0D8F92068816941F40061816120683D
:10108000816921F480618161206881692A6941EA6E
:101090000221816124E0206800F0F0F92068C16934
:1010A00041F00801C1612068C16921F00401C161FA
:1010B0002068C1692A69114311E0206800F00AFA2A
:1010C0002068C16941F40061C1612068C16921F4EF
:1010D0008061C1612068C1692A6941EA0221C16158
:1010E00084F83D60002084F83C0070BD10B5040019
:1010F00003D094F83D0010B107E0012010BD00209E
:1011000084F83C00204600F00CF8022084F83D00F2
:10111000211D206800F00AF9012084F83D0000201C
:1011200010BD704710B504460068012200F034F984
:1011300007492068884203D1416C41F40041416471
:101140002068016841F001010160002010BD00002D
:10115000002C0140FEE7000010B58EB0002407947B
:10116000089409940A940B941C2168460C94FEF789
:10117000F0FF17481549C0E900144FF47A71C0E92F
:10118000024104618461FFF76DFE4FF480500790C7
:1011900007A90F48FFF7A3FE0D48FFF7A7FF0B9421
:1011A0000BA90B480C94FFF735FE602000904FF41C
:1011B000FA70CDE901040022694605480494FFF75E
:1011C0002DFF0348FFF704FF0EB010BD00080040DC
:1011D00010000020FEE770470907090E002806DA14
:1011E00000F00F0000F1E02080F8141D704700F1BE
:1011F000E02080F8001470477047704770B50D46C6
:10120000044600F031F82046E560FFF72BFE002889
:1012100003D0BDE87040FFF702BA70BD2DE9F04180
:1012200005460E46C068FFF7F0F8FFF72DF90446B3
:101230000F463046FFF7EEF80022064BFFF776F830
:1012400022463B46FFF700F8FFF705F92968486397
:10125000BDE8F08100005940024AB2FBF1F189B2C9
:10126000FFF7CCBF40420F0070B506460846FFF7B7
:10127000CCF80546F068FFF7C8F836680446706B8E
:10128000FFF7C3F82146FEF7A1FF2946FEF76CFFE2
:10129000FFF7CDF8706370BDFFF7B8BA10B590B026
:1012A00028216846FEF755FF14210AA8FEF751FFD2
:1012B0000220009001200490102000240590079443
:1012C0006846FFF711FC0F20CDE90A044FF4E060F7
:1012D000CDE90C400E9000210AA8FFF719FB10B0D1
:1012E00010BD00000D48016841F001010160416836
:1012F0000B4A1140416001680A4A114001600168CF
:1013000021F480210160416821F4FE0141604FF425
:101310001F0181600449C00308607047001002404B
:101320000000FFF8FFFFF6FE08ED00E0F0B50268F0
:10133000164B174C174D4FF08047984205D0B842D6
:1013400003D0A04201D0A84203D122F070064A681F
:101350003243984205D0B84203D0A04201D0A842FF
:1013600003D122F44074CA68224322F080044A69FF
:10137000224302608A68C2620A688262984201D18E
:101380000969016301214161F0BD0000002C0140A9
:10139000000400400008004010B50123046A8B409F
:1013A0009C430462036A8A401343036210BD10B574
:1013B000846842EA032224F47F440A432243826081
:1013C00010BD826822F070020A4342F0070181607A
:1013D0007047000030B5026A22F001020262026A20
:1013E0004368846924F073050C682C4322F00205DD
:1013F0008A682A430A4DA8420BD122F00805CA6820
:1014000023F440732A434D6922F004021D438B6983
:101410002B434360846149684163026230BD000030
:10142000002C014030B5026A22F010020262026A0A
:10143000436884690D6824F4E64444EA05248D6811
:1014400022F0200242EA05120B4DA8420ED1CD68CF
:1014500022F0800242EA05124D6923F4406343EA18
:1014600085038D6922F0400243EA8503436084616D
:1014700049688163026230BD002C014030B5026AC8
:1014800022F480720262036A4268C46923F4007322
:1014900024F073050C682C438D6843EA05230C4D3A
:1014A000A8420ED1CD6823F4006343EA05234D69B9
:1014B00022F4405242EA05128D6923F4806342EA25
:1014C00005124260C4614968C163036230BD000017
:1014D000002C014030B5026A22F480520262046A94
:1014E0004268C3690D6823F4E64343EA05238D6827
:1014F00024F4005444EA0534064DA84204D14D6951
:1015000022F4804242EA85124260C3614968016464
:10151000046230BD002C014010B5036A046A24F057
:1015200001040462846924F0F00444EA021423F004
:101530000A020A438461026210BD10B5036A23F0F7
:10154000100303628369046A23F4704343EA02329E
:1015500024F0A00343EA01118261016210BDFEE79D
:1015600002E008C8121F08C1002AFAD1704770476C
:10157000002001E001C1121F002AFBD170470000CA
:1015800008B5FFF74BF9FFF789FE1248816941F072
:1015900008018161806900F008000090FFF7DCFD20
:1015A0000D48FFF78FFC00210B48FFF7BBFD4FF400
:1015B0007A7441F288352046FFF732F8294606480A
:1015C000FFF74AFE2046FFF72BF84B210248FFF7B2
:1015D00025FEF0E70010024010000020000000008F
:1015E0000000000001020304060708090C160008A9
:1015F0000000002010000000601500081C16000804
:1016000010000020400400007015000801000000D8
:0C161000100000000000000000A24A04CE
:04000005080000ED02
:00000001FF
