:020000040800F2
:100000006804002001010008F90C0008950C0008A4
:10001000F70C00086D010008AD0D0008000000009D
:100020000000000000000000000000001D0D00089E
:100030006F010008000000001B0D00081F0D0008E4
:100040001B0100081B0100081B0100081B01000820
:100050001B0100081B0100081B0100081B01000810
:100060001B0100081B0100081B0100081B01000800
:100070001B0100081B0100081B0100081B010008F0
:100080001B0100081B0100081B0100081B010008E0
:100090001B0100081B0100081B0100081B010008D0
:1000A0001B0100081B0100081B0100081B010008C0
:1000B0001B0100081B0100081B0100081B010008B0
:1000C0001B0100081B0100081B0100081B010008A0
:1000D0001B0100081B0100081B0100081B01000890
:1000E0001B0100081B0100081B010008DFF80CD0F1
:1000F00000F02AF800480047CD0D000868040020F1
:100100000648804706480047FEE7FEE7FEE7FEE7B1
:10011000FEE7FEE7FEE7FEE7FEE7FEE7650D000807
:10012000ED000008D2B201E000F8012B491EFBD21D
:1001300070470022F6E710B513460A4604461946F2
:10014000FFF7F0FF204610BD064C074D06E0E068C3
:1001500040F0010394E8070098471034AC42F6D30E
:10016000FFF7C8FF8C0E0008AC0E0008FEE77047D2
:100170002DE9F84FDFF890A100220AF1040B144694
:1001800001274FF00F090BF1040E00BF0B6807FAAF
:1001900004F52B40AB4274D1DFF870C14E68A6EB7A
:1001A0000C0866452BD00DDC032E34D005DC36B3AD
:1001B000012E19D0022E2FD11BE0112E16D0122E97
:1001C0002AD119E0B8F5881F19D006DCB8F5803FB0
:1001D00015D0B8F5801F1FD111E0B8F5001F0ED063
:1001E000B8F5041F18D10AE0CA6815E0CA68121DE4
:1001F00012E0CA6808320FE0CA680C320CE08A6864
:100200002AB1012A4FF0080203D0456104E004221C
:1002100002E0056100E00022FF2B01D8064601E064
:1002200000F104064FEA840501D9A5F12005D6F8AE
:1002300000C009FA05F82CEA080C02FA05F54CEAA8
:10024000050CC6F800C04D68ED0057D5304DAE69BD
:1002500046F00106AE61AD6924F0030605F0010524
:1002600000952C4D06EB050CDCF80850A6074FEA6C
:10027000167809FA08F6B543274EB04202D1002697
:1002800010E03BE0254EB04201D101260AE0244EA9
:10029000B04201D1022605E0224EB04201D1032630
:1002A00000E0042606FA08F62E43CCF808604D68F4
:1002B000DAF80060ED03554601D51E4300E09E4389
:1002C0002E604D68DBF80060AD035D4601D51E432E
:1002D00000E09E432E604D68DEF80060ED0275463A
:1002E00001D51E4300E09E432E604D68AD020E4DC9
:1002F0002E6801D51E4300E09E432E60641C102C26
:10030000FFF444AFBDE8F88F000401400000111075
:10031000001002400000014000080140000C0140B4
:1003200000100140001401400C040140C2684A4022
:10033000C26070470AB1016170470904FBE7000021
:1003400001488068704700000000002070B504007C
:100350001BD094F83D00002520B984F83C5020467D
:1003600000F044F9242084F83D002068016821F061
:100370000101016000F0B2FA404A6168914201D87F
:100380003F4900E03F49884201D2012070BD3E490B
:100390002368B0FBF1F159606368934206D94FF4CA
:1003A000967359434FF47A73B1FBF3F12368491CF8
:1003B00019626168914210D84900401EB0FBF1F209
:1003C000521CC2F30B02042A01D2042022E0B0FB2B
:1003D000F1F0401CC0F30B001CE0A368CBB301EBB1
:1003E000C10202EB0116421EB2FBF6F2521C42F4AD
:1003F0008042120536D06BB301EBC10202EB011152
:10040000401EB0FBF1F0401CC0F30B0040F48040F4
:1004100040F400402168C861D4E90701084321681D
:100420000860D4E90310084321688860D4E9050115
:1004300008432168C8602068016841F0010101603B
:100440002564202084F83D00256384F83E50002078
:1004500070BD00E008E001EB4106421EB2FBF6F27F
:10046000521CC6E70120D5E701EB4101401EB0FB5D
:10047000F1F0401CC0F30B00CAE70000A0860100A9
:1004800080841E0000093D0040420F002DE9FF4F0F
:1004900081B099468B4604464FF00108FFF750FFA4
:1004A000054694F83D0020287BD1192301224D49AF
:1004B0002046009500F0EFFB002872D194F83C0034
:1004C00001286ED0012084F83C0020680168C9072B
:1004D00003D1016841F0010101602068016821F445
:1004E00000610160242084F83D00002626643E4817
:1004F000E06220272068016841F4807101604B466A
:1005000000224FF001112046009500F0C4FB0028A6
:1005100058D121680BF0FE000861FFF711FF216838
:10052000054648694969C0F3400094F83D20C1F38D
:1005300080214FF0A00A12E0B9F1000F04D0FFF7BC
:10054000FFFE411B494501D984F83DA02168486957
:100550004969C0F3400094F83D20C1F3802108436D
:1005600001D1A02AE8D184F83D7020684169C943CF
:10057000890717D4016841F400710160206841695E
:1005800080691923012217492046009500F083FB5A
:10059000C0B984F83D7084F83C60002005B0BDE827
:1005A000F08F1DE0016841F40071016021686FF473
:1005B00080604861192301220A492046009500F015
:1005C0006AFB08B10320E9E74146039808F10108F6
:1005D00081428FD384F83D7084F83C600120DDE7D0
:1005E0000220DBE7020010000000FFFF10B586B01C
:1005F0000021009101910291039100681349884202
:1006000022D1134CA06940F00800A061A06969469E
:1006100000F0080004904FF4407000901220019008
:10062000032003900B48FFF7A3FD0B48416841F0FE
:10063000E06141F002014160E06940F40010E061D6
:10064000E06900F40010049006B010BD00540040B2
:1006500000100240000C0140000001400248816887
:10066000027811448160704700000020074810B5EF
:10067000016841F010010160032000F067F80020DC
:1006800000F006F800F024F8002010BD0020024021
:1006900070B50D4D04464FF47A712878B1FBF0F037
:1006A0000A490968B1FBF0F000F0E0FA48B9102CF3
:1006B00007D200222146501E00F028F800206C606E
:1006C00070BD012070BD0000000000200C00002063
:1006D0000C4808B5816941F001018161816901F02F
:1006E00001010091C16941F08051C161C06900F010
:1006F000805000900448416821F0E06141F0806141
:10070000416008BD0010024000000140F0B40E4BF3
:100710001B680C46C3F30223C3F10705042D00D95F
:100720000425191D072901D2002300E0DB1E012644
:1007300006FA05F1491E214099409E40761E16405A
:100740003143F0BC00F0D9BA0CED00E0064900F0EE
:10075000070208684FF6FF03184040EA0220034AE8
:1007600010430860704700000CED00E00000FA053F
:100770002DE9F047DFF8548105460E46D8F8000011
:1007800000F00700B0420CD2D8F8001021F00701A9
:100790003143C8F80010D8F8000000F00700B0425C
:1007A0006FD128684A4C810712D5400703D560688D
:1007B00040F4E06060602878000703D5606840F48A
:1007C000605060606068A96820F0F00008436060D5
:1007D0002878C00744D06868012816D0216802280C
:1007E00016D0890700294CDA616821F00301014322
:1007F0006160FFF7A5FD6968074641F2883001296D
:100800000ED00229814618D026E021688903E9E745
:100810008901E7E7FFF794FDC11B494501D918E0BD
:1008200081466068C0F381000128F3D118E000BF61
:10083000FFF786FDC11B49450BD86068C0F38100F6
:100840000228F5D10CE000BFFFF77AFDC11B494536
:1008500002D90320BDE8F087606810F00C0FF3D1D7
:10086000D8F80010404601F00701B1420BD90168E9
:1008700021F0070131430160006800F00700B04239
:1008800001D00120E6E72878400705D56068E968CF
:1008900020F4E060084360602878000706D56068AF
:1008A000296920F4605040EAC100606000F026F839
:1008B0006168084AC1F30311515CC84006490860E9
:1008C0000020FFF7E5FE0020C4E700000020024002
:1008D00000100240740E00080C0000200448054976
:1008E00000684968044AC1F30221515CC84070475E
:1008F0000C00002000100240840E000812A185B0F8
:100900000FC98DE80F0014A0144A006804905168C4
:10091000134801F00C03042B10D0082B0ED1C1F3A7
:100920008343C9031DF803000AD5516804AAC1F323
:100930004041515C0A4A5043B0FBF1F005B07047AA
:1009400008494843FAE700000203040506070809BE
:100950000A0B0C0D0E0F10100102000000100240D7
:1009600000127A0000093D002DE9F84F0446007896
:10097000B94DC00748D06868C0F38100012807D08E
:100980006868C0F38100022809D16868C00306D5F1
:100990002868800338D5606800286FD034E060682C
:1009A000B0F5803F0BD010B1B0F5A02F11D0286862
:1009B00020F480302860286820F4802002E0286835
:1009C00040F480302860606888B1FFF7B9FC0646C3
:1009D00009E0286840F480202860F0E7FFF7B0FCC9
:1009E000801B642875D828688003F7D50CE0FFF7D2
:1009F000A7FC064605E000BFFFF7A2FC801B6428A9
:100A0000F0D828688003F7D42078944E80074FF000
:100A100001094FF000083BD5686810F00C0F07D0B3
:100A20006868C0F38100022809D16868C00306D451
:100A30002868800714D5206901281FD110E020699B
:100A4000B0B1C6F80090FFF77BFC074605E000BF99
:100A5000FFF776FCC01B0228C4D828688007F7D5AA
:100A60002868616920F0F80040EAC10028600FE0C2
:100A7000C6F80080FFF764FC074606E0E9E000BF27
:100A8000FFF75EFCC01B022823D828688007F7D434
:100A9000207800072CD57248A169D9B1C0F8009020
:100AA000FFF74EFC074604E0FFF74AFCC01B022894
:100AB0000FD8686A8007F7D56A484FF4FA51006882
:100AC000B0FBF1F0009000BF0098411E0091FAD2F7
:100AD0000EE080E0C0F80080FFF732FC074604E03B
:100AE000FFF72EFCC01B022875D8686A8007F7D470
:100AF0002078400760D5E8690027C00008D4E8697D
:100B000040F08050E861E869012700F080500090D3
:100B100055480168C90513D40168834641F48071C2
:100B20000160FFF70DFC824606E000BFFFF708FCFE
:100B3000A0EB0A0064284ED8DBF80000C005F5D50C
:100B4000E06801280AD008B1052813D0286A20F0EF
:100B500001002862286A20F0040002E0286A40F0C0
:100B600001002862E06841F2883B98B1FFF7E8FB9A
:100B700082460BE0286A40F004002862EEE700BFDE
:100B8000FFF7DEFBA0EB0A0159455AD8286A800717
:100B9000F6D50CE0FFF7D4FB824605E0FFF7D0FB6B
:100BA000A0EB0A0159454CD8286A8007F6D41FB13A
:100BB000E86920F08050E861E06988B36968C1F3B2
:100BC0008101022945D00228C6F8608004D0FFF7D1
:100BD000B7FB044638E034E0FFF7B2FB074604E019
:100BE000FFF7AEFBC01B02282BD828688001F7D482
:100BF000206AB0F5803F05D16868A16820F4003014
:100C000008436860D4E908010843696821F4741155
:100C100008436860C6F86090FFF792FB044606E060
:100C200015E000BFFFF78CFB001B022809D82868DD
:100C30008001F7D50BE000BFFFF782FB001B022805
:100C400002D90320BDE8F88F28688001F4D4002081
:100C5000F8E70120F6E700000010024000004242E1
:100C6000800442420C0000200070004010B5401E7D
:100C7000B0F1807F01D3012010BD4FF0E02460610E
:100C80000F21601700F039F80020A06107202061D3
:100C9000002010BDFEE72DE9F0471E4690460D46A8
:100CA0000446C1F30747DDF8209012E0701C10D015
:100CB0002EB1FFF745FBA0EB0900B04209D9002097
:100CC00044F8300F20216173A07320730320BDE826
:100CD000F0872068012F0AD0806925EA000000040F
:100CE000000C06D000214145E0D00020EFE740692C
:100CF000F3E70121F7E7FEE770470907090E00282F
:100D000006DA00F00F0000F1E02080F8141D7047B3
:100D100000F1E02080F80014704770477047FFF73B
:100D20009DBC10B590B028216846FFF702FA142147
:100D30000AA8FFF7FEF9022000900120049010207D
:100D40000024059007946846FFF70EFE0F20CDE9BA
:100D50000A040C940D9400210AA80E94FFF708FDD4
:100D600010B010BD0D48016841F0010101604168FB
:100D70000B4A1140416001680A4A11400160016854
:100D800021F480210160416821F4FE0141604FF4AB
:100D90001F0181600449C0030860704700100240D1
:100DA0000000FFF8FFFFF6FE08ED00E0FEE702E0BE
:100DB00008C8121F08C1002AFAD1704770470020E6
:100DC00001E001C1121F002AFBD1704786B0FFF776
:100DD0004DFCFFF7A6FF00242148009401940294E3
:100DE0000394816941F004018161816901F004018A
:100DF0000491816941F0080181618069194D00F019
:100E000008000490002220212846FFF793FA2020B2
:100E100000900120CDE90104022003906946284694
:100E2000FFF7A6F91149104808601148C1E901040B
:100E30004FF48040C1E903404C618C61CC610846AD
:100E40000C62FFF783FA0A23022250210748FFF7BA
:100E50001DFB18B920212846FFF768FAFEE70000BD
:100E60000010024000080140005400401000002023
:100E7000A086010000000000000000000102030441
:100E8000060708090000000001020304AC0E000878
:100E90000000002010000000AE0D0008BC0E00088D
:100EA0001000002058040000BE0D000801000000E2
:0C0EB000100000000000000000A24A0436
:04000005080000ED02
:00000001FF
