:020000040800F2
:1000000068040020010100084315000805110008DC
:100010004115000881020008F915000800000000E1
:10002000000000000000000000000000671500084C
:10003000830200080000000065150008691500082B
:100040001B0100081B0100081B0100081B01000820
:100050001B0100081B0100081B0100081B01000810
:100060001B0100081B0100081B0100081B01000800
:100070001B0100081B0100081B0100081B010008F0
:100080001B0100081B0100081B0100081B010008E0
:100090001B0100081B0100081B0100081B010008D0
:1000A0001B0100081B0100081B0100081B010008C0
:1000B0001B0100081B0100081B0100081B010008B0
:1000C0001B0100081B0100081B0100081B010008A0
:1000D0001B0100081B0100081B0100081B01000890
:1000E0001B0100081B0100081B010008DFF80CD0F1
:1000F00000F0B4F800480047191700086804002011
:100100000648804706480047FEE7FEE7FEE7FEE7B1
:10011000FEE7FEE7FEE7FEE7FEE7FEE7B1150008B3
:10012000ED000008D2B201E000F8012B491EFBD21D
:1001300070470022F6E710B513460A4604461946F2
:10014000FFF7F0FF204610BD30B480EA010202F054
:10015000004530F0004221F0004013D090B1C30DB3
:10016000D40DC2F31601C0F31600E41A41F40001E5
:1001700040F400027D34914201D3641C00E0490048
:10018000002C02DA30BC002070474FF4000000233E
:10019000914201D3891A034340084FEA4101F7D144
:1001A00051B1914202D14FF0004105E002D24FF02F
:1001B000010101E06FF0010103EBC450284430BCA1
:1001C00000F015B8420005D0C0F3C7525242914228
:1001D00001DC0020704700EBC1507047C10F80EA7E
:1001E000E0700844CA079623002100F009B80029EE
:1001F000A8BF7047401C490008BF20F001007047AD
:1002000010B4B0FA80FC00FA0CF050EA010404BF0C
:1002100010BC704749B1CCF1200421FA04F411FA62
:100220000CF118BF012121430843A3EB0C01CB1DA6
:100230004FEA00614FEA102042BF002010BC704717
:1002400000EBC35010440029A4BF10BC7047401CF1
:10025000490008BF20F0010010BC7047064C074D54
:1002600006E0E06840F0010394E807009847103486
:10027000AC42F6D3FFF73EFF781800089818000844
:10028000FEE7704770B5044600F0F6F80546601CBE
:1002900002D004480078044400F0EEF8401BA0426D
:1002A000FAD370BD000000202DE9F84FDFF890A1CF
:1002B00000220AF1040B144601274FF00F090BF13D
:1002C000040E00BF0B6807FA04F52B40AB4274D153
:1002D000DFF870C14E68A6EB0C0866452BD00DDC2C
:1002E000032E34D005DC36B3012E19D0022E2FD1C7
:1002F0001BE0112E16D0122E2AD119E0B8F5881F56
:1003000019D006DCB8F5803F15D0B8F5801F1FD195
:1003100011E0B8F5001F0ED0B8F5041F18D10AE09F
:10032000CA6815E0CA68121D12E0CA6808320FE0F8
:10033000CA680C320CE08A682AB1012A4FF0080220
:1003400003D0456104E0042202E0056100E00022E0
:10035000FF2B01D8064601E000F104064FEA8405B0
:1003600001D9A5F12005D6F800C009FA05F82CEA54
:10037000080C02FA05F54CEA050CC6F800C04D68F9
:10038000ED0057D5304DAE6946F00106AE61AD695E
:1003900024F0030605F0010500952C4D06EB050C35
:1003A000DCF80850A6074FEA167809FA08F6B543B4
:1003B000274EB04202D1002610E03BE0254EB0426D
:1003C00001D101260AE0244EB04201D1022605E007
:1003D000224EB04201D1032600E0042606FA08F6B8
:1003E0002E43CCF808604D68DAF80060ED035546FE
:1003F00001D51E4300E09E432E604D68DBF800608F
:10040000AD035D4601D51E4300E09E432E604D685E
:10041000DEF80060ED02754601D51E4300E09E4304
:100420002E604D68AD020E4D2E6801D51E4300E0D2
:100430009E432E60641C102CFFF444AFBDE8F88F7F
:1004400000040140000011100010024000000140B3
:1004500000080140000C0140001001400014014060
:100460000C040140C2684A40C26070470AB1016191
:1004700070470904FBE700000148806870470000EE
:100480000000002070B504001BD094F83D0000254A
:1004900020B984F83C50204600F0E8FA242084F883
:1004A0003D002068016821F00101016000F04EFC70
:1004B000404A6168914201D83F4900E03F49884283
:1004C00001D2012070BD3E492368B0FBF1F15960B3
:1004D0006368934206D94FF4967359434FF47A7385
:1004E000B1FBF3F12368491C19626168914210D88D
:1004F0004900401EB0FBF1F2521CC2F30B02042A69
:1005000001D2042022E0B0FBF1F0401CC0F30B004C
:100510001CE0A368CBB301EBC10202EB0116421E43
:10052000B2FBF6F2521C42F48042120536D06BB395
:1005300001EBC10202EB0111401EB0FBF1F0401CC7
:10054000C0F30B0040F4804040F400402168C861D3
:10055000D4E90701084321680860D4E9031008437F
:1005600021688860D4E9050108432168C8602068D3
:10057000016841F0010101602564202084F83D00FC
:10058000256384F83E50002070BD00E008E001EBD8
:100590004106421EB2FBF6F2521CC6E70120D5E727
:1005A00001EB4101401EB0FBF1F0401CC0F30B0019
:1005B000CAE70000A086010080841E0000093D00FB
:1005C00040420F002DE9FF4F81B099468B4604460B
:1005D0004FF00108FFF750FF054694F83D00202832
:1005E0007BD1192301224D492046009500F07FFE62
:1005F000002872D194F83C0001286ED0012084F8C4
:100600003C0020680168C90703D1016841F001017D
:1006100001602068016821F400610160242084F8F1
:100620003D00002626643E48E062202720680168DD
:1006300041F4807101604B4600224FF001112046C9
:10064000009500F054FE002858D121680BF0FE0000
:100650000861FFF711FF2168054648694969C0F341
:10066000400094F83D20C1F380214FF0A00A12E031
:10067000B9F1000F04D0FFF7FFFE411B494501D936
:1006800084F83DA0216848694969C0F3400094F8A6
:100690003D20C1F38021084301D1A02AE8D184F88C
:1006A0003D7020684169C943890717D4016841F446
:1006B000007101602068416980691923012217498E
:1006C0002046009500F013FEC0B984F83D7084F810
:1006D0003C60002005B0BDE8F08F1DE0016841F4EA
:1006E0000071016021686FF4806048611923012264
:1006F0000A492046009500F0FAFD08B10320E9E719
:100700004146039808F1010881428FD384F83D7077
:1007100084F83C600120DDE70220DBE702001000E6
:100720000000FFFF2DE9F84F1F4690468A46044619
:10073000DDF82890FFF7A0FE054694F83D0020283C
:100740007ED11923012278492046009500F0CFFD83
:100750000028F5D194F83C00012871D0012084F8DC
:100760003C0020680168C90703D1016841F001011C
:1007700001602068016821F400610160222084F892
:100780003D00102084F83E0000262664C4F8248032
:1007900067856648E062608D20852B464A46514653
:1007A000204600F0C4FC28B1206C84F83C6004288A
:1007B00050D073E0208D5E4F68B1012814D002281C
:1007C000206801681ED041F48061016020684169A1
:1007D000806900909AE02068416981690091016810
:1007E00041F40071016091E02068016821F48061AA
:1007F000016072B62068416981690091016841F425
:1008000000710AE041F40061016072B6206841693C
:1008100081690091016821F48061016062B675E030
:10082000032850D801280CD002284B464FF0000274
:1008300039462046009512D000F059FD70BB13E0F8
:1008400070E02A464946204600F0C6FD28B1206CDB
:10085000202823D00120BDE8F88F20684BE000F06D
:1008600046FDD8B972B61BE02068016821F48061AA
:10087000016072B620680169606A421C62620170A0
:10088000208D401E2085608D401E60854B460022D5
:1008900039462046009500F02AFD08B10320DAE72A
:1008A0002068016841F40071016020680169606A94
:1008B000421C62620170208D401E2085608D401EAA
:1008C000608562B6C9E72A464946204600F084FDA5
:1008D0000028BCD120680169606A421C6262017014
:1008E000208D401E2085608D401E608520684169F6
:1008F000C94349070AD40169606A421C62620170F7
:10090000208D401E2085608D401E6085208D002832
:1009100086D1202084F83D0084F83E6084F83C6055
:10092000002098E7022096E7020010000000FFFF79
:10093000040001002DE9F84F1F4690468A46044600
:10094000DDF82890FFF798FD064694F83D00202832
:100950007ED11923012243492046009600F0C7FCAE
:1009600000287DD194F83C00012879D0012084F83A
:100970003C0020680168C90703D1016841F001010A
:1009800001602068016821F400610160212084F881
:100990003D00102084F83E0000252564C4F8248022
:1009A00067853148E062608D208533464A4651466E
:1009B000204600F02BFC28B1206C84F83C50042821
:1009C0004CD00DE0206841698069009030E03246EB
:1009D0004946204600F031FD28B1206C042838D06B
:1009E0000320BDE8F88F606A411C616221680078CD
:1009F0000861608D401E6085208D401E80B220857C
:100A000021684A69D24352070BD450B1606A421C34
:100A1000626200780861608D401E6085208D401EF6
:100A2000208532464946204600F03AFC0028D4D1C1
:100A3000208D0028CBD154F83D0B016841F40071A2
:100A40000160202004F81E09E57765770020C8E7DB
:100A500006E02068016841F4007101600120C0E7F0
:100A60000220BEE7020010000000FFFF10B586B0B4
:100A7000002100910191029103910068134988427D
:100A800022D1134CA06940F00800A061A06969461A
:100A900000F0080004904FF4407000901220019084
:100AA000032003900B48FFF7FFFB0B48416841F020
:100AB000E06141F002014160E06940F40010E06152
:100AC000E06900F40010049006B010BD005400402E
:100AD00000100240000C0140000001400248816803
:100AE000027811448160704700000020074810B56B
:100AF000016841F010010160032000F05FF8002060
:100B000000F006F800F024F8002010BD002002409C
:100B100070B50D4D04464FF47A712878B1FBF0F0B2
:100B20000A490968B1FBF0F000F0D8FA48B9102C76
:100B300007D200222146501E00F020F800206C60F1
:100B400070BD012070BD0000000000200C000020DE
:100B5000094808B5816941F001018161816901F0AD
:100B600001010091C16941F08051C161C06900F08B
:100B70008050009008BD000000100240F0B40E4B01
:100B80001B680C46C3F30223C3F10705042D00D9EB
:100B90000425191D072901D2002300E0DB1E0126D0
:100BA00006FA05F1491E214099409E40761E1640E6
:100BB0003143F0BC00F0C6BC0CED00E0064900F08B
:100BC000070208684FF6FF03184040EA0220034A74
:100BD00010430860704700000CED00E00000FA05CB
:100BE0002DE9F047DFF8548105460E46D8F800009D
:100BF00000F00700B0420CD2D8F8001021F0070135
:100C00003143C8F80010D8F8000000F00700B042E7
:100C10006FD128684A4C810712D5400703D5606818
:100C200040F4E06060602878000703D5606840F415
:100C3000605060606068A96820F0F0000843606060
:100C40002878C00744D06868012816D02168022897
:100C500016D0890700294CDA616821F003010143AD
:100C60006160FFF709FC6968074641F28830012995
:100C70000ED00229814618D026E021688903E9E7D1
:100C80008901E7E7FFF7F8FBC11B494501D918E0E7
:100C900081466068C0F381000128F3D118E000BFED
:100CA000FFF7EAFBC11B49450BD86068C0F3810020
:100CB0000228F5D10CE000BFFFF7DEFBC11B494560
:100CC00002D90320BDE8F087606810F00C0FF3D163
:100CD000D8F80010404601F00701B1420BD9016875
:100CE00021F0070131430160006800F00700B042C5
:100CF00001D00120E6E72878400705D56068E9685B
:100D000020F4E060084360602878000706D560683A
:100D1000296920F4605040EAC100606000F026F8C4
:100D20006168084AC1F30311515CC8400649086074
:100D30000020FFF7EDFE0020C4E700000020024085
:100D4000001002405E1800080C000020044805490D
:100D500000684968044AC1F30221515CC8407047E9
:100D60000C000020001002406E18000812A185B08F
:100D70000FC98DE80F0014A0144A00680490516850
:100D8000134801F00C03042B10D0082B0ED1C1F333
:100D90008343C9031DF803000AD5516804AAC1F3AF
:100DA0004041515C0A4A5043B0FBF1F005B0704736
:100DB00008494843FAE7000002030405060708094A
:100DC0000A0B0C0D0E0F1010010200000010024063
:100DD00000127A0000093D002DE9F84F0446007822
:100DE000B94DC00748D06868C0F38100012807D01A
:100DF0006868C0F38100022809D16868C00306D57D
:100E00002868800338D5606800286FD034E06068B7
:100E1000B0F5803F0BD010B1B0F5A02F11D02868ED
:100E200020F480302860286820F4802002E02868C0
:100E300040F480302860606888B1FFF71DFB0646EB
:100E400009E0286840F480202860F0E7FFF714FBF1
:100E5000801B642875D828688003F7D50CE0FFF75D
:100E60000BFB064605E000BFFFF706FB801B64286E
:100E7000F0D828688003F7D42078944E80074FF08C
:100E800001094FF000083BD5686810F00C0F07D03F
:100E90006868C0F38100022809D16868C00306D4DD
:100EA0002868800714D5206901281FD110E0206927
:100EB000B0B1C6F80090FFF7DFFA074605E000BFC3
:100EC000FFF7DAFAC01B0228C4D828688007F7D5D4
:100ED0002868616920F0F80040EAC10028600FE04E
:100EE000C6F80080FFF7C8FA074606E0E9E000BF51
:100EF000FFF7C2FAC01B022823D828688007F7D45E
:100F0000207800072CD57248A169D9B1C0F80090AB
:100F1000FFF7B2FA074604E0FFF7AEFAC01B02285B
:100F20000FD8686A8007F7D56A484FF4FA5100680D
:100F3000B0FBF1F0009000BF0098411E0091FAD282
:100F40000EE080E0C0F80080FFF796FA074604E064
:100F5000FFF792FAC01B022875D8686A8007F7D499
:100F60002078400760D5E8690027C00008D4E86908
:100F700040F08050E861E869012700F0805000905F
:100F800055480168C90513D40168834641F480714E
:100F90000160FFF771FA824606E000BFFFF76CFAC6
:100FA000A0EB0A0064284ED8DBF80000C005F5D598
:100FB000E06801280AD008B1052813D0286A20F07B
:100FC00001002862286A20F0040002E0286A40F04C
:100FD00001002862E06841F2883B98B1FFF74CFAC3
:100FE00082460BE0286A40F004002862EEE700BF6A
:100FF000FFF742FAA0EB0A0159455AD8286A800740
:10100000F6D50CE0FFF738FA824605E0FFF734FA30
:10101000A0EB0A0159454CD8286A8007F6D41FB1C5
:10102000E86920F08050E861E06988B36968C1F33D
:101030008101022945D00228C6F8608004D0FFF75C
:101040001BFA044638E034E0FFF716FA074604E0DE
:10105000FFF712FAC01B02282BD828688001F7D4AA
:10106000206AB0F5803F05D16868A16820F400309F
:1010700008436860D4E908010843696821F47411E1
:1010800008436860C6F86090FFF7F6F9044606E08A
:1010900015E000BFFFF7F0F9001B022809D8286807
:1010A0008001F7D50BE000BFFFF7E6F9001B02282F
:1010B00002D90320BDE8F88F28688001F4D400200D
:1010C000F8E70120F6E7000000100240000042426D
:1010D000800442420C0000200070004010B5401E09
:1010E000B0F1807F01D3012010BD4FF0E02460619A
:1010F0000F21601700F026FA0020A0610720206170
:10110000002010BDFEE701684A69D24352050CD4A5
:101110006FF480624A6104210164002140F8301FAD
:1011200020224273017301207047002070472DE98F
:10113000F84F0446C06A1E4692460D4621680A686A
:1011400042F480620A60042807D0012805D010F517
:10115000803F02D0206B112804D12068016841F43F
:10116000807101604FF0011853460022414620462D
:10117000009600F0BCF8B8BB206908F10109B0F591
:10118000804F12D00620216800EAD51747F0F00002
:1011900008613346524608F10701204600F0D8F8AE
:1011A00038B1206C04282FD01EE0E8B240F00100D6
:1011B0001FE02168E8B2086133465246494620469E
:1011C00000F0C6F80028ECD12068416981690091DF
:1011D000016841F480710160534600224146204677
:1011E000009600F084F810B10320BDE8F88F47F0B6
:1011F000F10021680861334652464946204600F016
:10120000A7F80028CDD1F0E70120EEE7F8B50446B5
:10121000C06A1E460D461746042807D0012805D08F
:1012200010F5803F02D0206B122804D1206801689D
:1012300041F480710160134600224FF001112046F5
:10124000009600F054F8A0B92069B0F5804F12D094
:101250000620216800EAD51040F0F000086133460E
:101260003A460E49204600F073F838B1206C042845
:1012700011D00320F8BD05F0FE0000E0E8B22168BF
:101280000861064933463A46891F204600F060F857
:101290000028EBD1F8BD0120F8BD000008000100D6
:1012A00070B516460D4604461AE02046FFF72BFFA0
:1012B00008B1012070BD681C12D025B1FFF7DCF821
:1012C000801BA8420CD954F8400F40F0200044F88D
:1012D000100900202060202161732073032070BD5D
:1012E00020684069C0434007DFD4002070BD2DE96D
:1012F000F0471E4690460D460446C1F30747DDF809
:10130000209012E0701C10D02EB1FFF7B5F8A0EBC2
:101310000900B04209D9002044F8300F2021617340
:10132000A07320730320BDE8F0872068012F0AD046
:10133000806925EA00000004000C06D00021414528
:10134000E0D00020EFE74069F3E70121F7E7000074
:101350002DE9F0479A4691460D46044600264FF087
:101360002008C1F307472AE020684069C0434005D0
:1013700012D42068016841F40071016021686FF4A3
:101380008060486104202064266384F83D8084F8EE
:101390003C600120BDE8F087B9F1FF3F0FD0B9F103
:1013A000000F05D0FFF768F8A0EB0A01494506D900
:1013B00044F8306F84F80D8026730320EAE7206834
:1013C000012F07D0D0F8180025EA00000004000C17
:1013D000E0D0C9E74069F7E72DE9F04100259046E4
:1013E0000E460446202721E04069C043C0060CD4C5
:1013F00021686FF0100048612564256384F83D7012
:1014000084F83C500120BDE8F0812EB1FFF734F89C
:10141000A0EB0800B04209D954F8400F40F020007A
:1014200044F80409677025700320ECE720684169DF
:10143000C9434906D8D40020E5E770B516460D46E5
:1014400004461AE02046FFF75EFE08B1012070BD99
:10145000681C12D025B1FFF70FF8801BA8420CD9E9
:1014600054F8400F40F0200044F81009002020609C
:10147000202161732073032070BD20684069C04340
:101480000006DFD4002070BD2DE9FC410E46074662
:101490000A2302225021FFF795F8274D18B9202181
:1014A0002846FEF7DFFF4FF4FA742046FEF7EAFE07
:1014B00020212846FEF7D6FF2046FEF7E3FE1FA0B8
:1014C0000DF1050100680190384600F085F900F043
:1014D0000F000F2803D120212846FEF7C3FF204626
:1014E000FEF7D0FE20212846FEF7BCFF2046FEF77F
:1014F000C9FE3D208DF800006946384600F06CF9C1
:1015000018B920212846FEF7ADFFFA20FEF7BAFEF3
:101510003146384600F08FF96420FEF7B3FE694685
:10152000384600F059F9062803D120212846FEF755
:1015300099FFBDE8FC810000000801403F36000033
:10154000FEE770470907090E002806DA00F00F00D1
:1015500000F1E02080F8141D704700F1E02080F8D1
:101560000014704770477047FFF7B8BA10B590B0D5
:1015700028216846FEF7DDFD14210AA8FEF7D9FDF3
:101580000220009001200490102000240590079470
:101590006846FFF721FC0F20CDE90A040C940D9456
:1015A00000210AA80E94FFF71BFB10B010BD00002D
:1015B0000D48016841F00101016041680B4A11408A
:1015C000416001680A4A11400160016821F48021EC
:1015D0000160416821F4FE0141604FF41F01816008
:1015E0000449C00308607047001002400000FFF883
:1015F000FFFFF6FE08ED00E0FEE702E008C8121F5C
:1016000008C1002AFAD170477047002001E001C1EB
:10161000121F002AFBD17047F0B585B000220D469D
:1016200002920392009201920821062302AA00F07E
:10163000EAF8BDF80800ADF80000BDF80A00ADF802
:101640000200BDF80C00094FADF8040000246E46FE
:1016500036F91400FEF7C2FD3946FEF775FD45F870
:101660002400641C032CF3DB05B0F0BD0000C8426D
:10167000F0B585B000220D460292039200920192CD
:101680001421062302AA00F0BEF8BDF80800ADF848
:101690000000BDF80A00ADF80200BDF80C000024FF
:1016A000ADF804006E46271F36F91400FEF796FDCC
:1016B0003946FEF787FD45F82400641C032CF3DB54
:1016C00005B0F0BDF0B585B000220D460292039240
:1016D000009201920E21062302AA00F094F8BDF8B0
:1016E0000800ADF80000BDF80A00ADF80200BDF832
:1016F0000C000024ADF804006E46271F36F91400D4
:10170000FEF76CFD3946FEF75DFD45F82400641CCC
:10171000032CF3DB05B0F0BD8EB0FFF7E7F9FFF760
:1017200025FF0024274800940194029403948169C2
:1017300041F004018161816901F004010D91816929
:1017400041F00801816180691F4D00F008000D9093
:10175000002220212846FEF789FE2020009001204B
:10176000CDE901040220039069462846FEF79CFD5E
:101770001748164901601749C0E901144FF4804128
:10178000C0E9034144618461C4610462FEF77AFEEA
:1017900006210F48FFF778FE0494059406940794F9
:1017A000089409940A940B940C9404A90848FFF730
:1017B00089FF07A90648FFF75BFF0AA90448FFF75E
:1017C0002BFFF2E7001002400008014000540040E7
:1017D00010000020801A06007CB5054600208DF818
:1017E00004000A240A460123502128460094FFF7EA
:1017F000A1F8012301AA502128460094FEF792FF88
:101800009DF804007CBDFFB581B01D4616460A2434
:101810000746012302AA50210094FFF78BF82B46BC
:101820003246502138460094FEF77CFF0120FEF737
:1018300029FD05B0F0BD0A463D21AFF300801CB57F
:1018400002238DF804100A218DF80520009101AAC9
:101850005021FFF76FF81E20FEF714FD1CBD00009D
:101860000000000000000102030406070809000050
:101870000000010203040000981800080000002086
:1018800010000000FA150008A81800081000002039
:10189000580400000A1600080100000010000000B3
:0818A0000000000000A24A0450
:04000005080000ED02
:00000001FF
